:020000040800F2
:1000000040B50020E101000841560008DD3D000830
:1000100061550008F51500084F6E0008000000004B
:10002000000000000000000000000000490100087E
:10003000C5180008000000008D0100083D69000897
:10004000FB010008FB010008FB010008FB010008A0
:10005000FB010008FB010008FB010008FB01000890
:10006000FB010008FB010008FB010008FB01000880
:10007000FB010008FB010008FB010008FB01000870
:10008000FB010008FB010008FB010008FB01000860
:100090006D6D0008FB010008FB010008FB01000872
:1000A000FB010008FB010008FB010008FB01000840
:1000B000B9690008C5690008FB010008FB010008D8
:1000C000FB010008FB010008FB010008FB01000820
:1000D000FB010008616D0008FB010008FB0100083E
:1000E000FB010008FB010008FB010008FB01000800
:1000F000FB010008FB010008FB010008FB010008F0
:10010000FB010008FB010008FB010008FB010008DF
:10011000FB010008456B0008D1690008DD69000893
:10012000FB010008FB010008FB010008FB010008BF
:10013000DFF810D000F074FD00480047A5920008D9
:10014000AFF3008040B50020224B19680868B0E882
:10015000F00F80F30988BFF36F8F4FF0000080F33A
:1001600011884EF00D0E7047000000000648006830
:10017000006880F3088862B661B6BFF34F8FBFF3A3
:100180006F8F00DF00BF00BF08ED00E0EFF30980D4
:10019000BFF36F8F0F4B1A6820E9F00F106008B59E
:1001A0004FF0500080F31188BFF34F8FBFF36F8F74
:1001B0000AF01CFB4FF0000080F31188BDE80840F6
:1001C00019680868B0E8F00F80F30988BFF36F8FF3
:1001D000704700BF54000020EFF305807047000017
:1001E0000648804706480047FEE7FEE7FEE7FEE7D1
:1001F000FEE7FEE7FEE7FEE7FEE7FEE7B56900087B
:1002000031010008202A04DB203A21FA02F0002103
:10021000704721FA02F3D040C2F120029140084316
:100220001946704740EA01039B0703D009E008C95B
:10023000121F08C0042AFAD203E011F8013B00F8AB
:10024000013B521EF9D27047D2B201E000F8012BF7
:10025000491EFBD270470022F6E710B513460A4646
:1002600004461946FFF7F0FF204610BD10B50022E6
:1002700000E0521C835C8C5CA34201D1002BF8D1BE
:10028000D8B2E1B2401A10BD0FB400B58DB010A9BC
:1002900009900B9000914FF0FF300A9000200C90D5
:1002A00005480690054807906A4609A80F9900F08E
:1002B0001DFB0DB05DF814FB0909000827090008B3
:1002C0002DE9FF5FD2E901A74FF000089169994637
:1002D0001446DDF838B0464601988847054659EA85
:1002E0000B0005D009E0A169761C019888470546F6
:1002F000216A284688470028F5D1681C03D05FEAA8
:10030000CA7005D015E04FF0FF3004B0BDE8F09F93
:100310002068011D2160D0F800800AE05FEACA7001
:1003200001D108F8015BA169761C7F1E01988847FE
:100330000546002F1ADD681C18D0B9F1000F0DD04A
:10034000E81705EBD060421120F01F0059F8221089
:100350002A1A012090400142E0D107E0BBF1000FD2
:10036000DCD1216A284688470028D7D0E169019866
:100370008847BBF1000F07D1002E05DD5FEACA7088
:1003800002D1002188F80010A068B84203DDBBF15B
:10039000000F03D017B16FF00100B6E73046B4E7A5
:1003A00070B5064607F014FA046805460A220021D3
:1003B000304600F0C9FA2C6070BDF0B480EA01024A
:1003C000D40F4200B2EB410F02D20246084611465A
:1003D0004A0042D0C30DDDB2C1F3C752AD1A202D81
:1003E00035DAC1F3160141F4000204B15242C5F1FD
:1003F000200602FA06F12A411044B3EBD05F23D065
:10040000C4B1012DA0EBC35009DCF0BC4FF0004299
:1004100002EAC352DBB200F5000000F0D6BA400099
:1004200000F1807000EBC350A0F1807040EAD17001
:10043000490009E0490841EAC071A0EBC35000F54A
:100440000000400800EBC350F0BC00F0B5BA6142B8
:10045000012202EB4101001BF6E7F0BC704781F07E
:100460000041AAE780F00040A7E780EA010210B54A
:1004700002F00043400022D04A001FD0010E01EBE1
:100480001261C0F35600C2F3560240F4000042F479
:100490000002A0FB022000047F39140400D0401C9D
:1004A00050EA124001D44000491EC2B20C0604EBCF
:1004B000D010401C4008802A02D003E0002010BD6C
:1004C00020F00100002900DA0020184310BD30B4EC
:1004D00080EA010202F0004530F0004221F00040C5
:1004E00013D090B1C30DD40DC2F31601C0F31600A2
:1004F000E41A41F4000140F400027D34914201D33A
:10050000641C00E04900002C02DA30BC0020704777
:100510004FF400000023914201D3891A034340089D
:100520004FEA4101F7D151B1914202D14FF0004160
:1005300005E002D24FF0010101E06FF0010103EB91
:10054000C450284430BC00F037BA2DE9FE4F804635
:1005500081EA0300C00F0C46009021F0004123F017
:100560000045B8EB0200A94105D24046214690461D
:100570001C460B46024623F00040104347D0270D8F
:10058000C7F30A00C3F30A510290401A01904028B1
:100590006BDAC3F3130040F4801B0098924620B13D
:1005A0000023D2EB030A63EB0B0B01985946C0F111
:1005B0004002504600F073F906460D465046594633
:1005C000019A00F07BF910EB08006141002487EAF2
:1005D000115284EAE7731A4340D0009A62B3019A39
:1005E000012A4FEA075215DC001B61EB02014FF0B4
:1005F000004202EA0752CDE90042001C41F5801199
:1006000032462B4600F01EFA03B0BDE8F08F40469C
:100610002146F9E7001B61EB0201001C41F5801344
:1006200000185B412018A2F5001747EB030140EAD0
:10063000D570B6196D4111E06D084FEA360645EAEE
:10064000C0754FEA0752001B61EB0201001C41F527
:10065000801149084FEA30000019514132462B46BB
:1006600003B0BDE8F04F00F0DEB900980122400071
:100670000023D0EB020263EBE073009821464FEABF
:10068000E074B8EB000061EB0401E9E783F000439C
:100690005BE781F0004158E72DE9FE4F81EA030452
:1006A00004F0004421F0004100944FF0000B23F0CF
:1006B000004350EA01045ED052EA03045BD0C3F366
:1006C0000A54C1F30A552C44A4F2F3340194A0FB5C
:1006D0000254C1F3130141F48011C3F3130343F433
:1006E000801301FB024400FB034E840A970A44EA8C
:1006F000815447EA8357A4FB076802958D0A05FBDE
:1007000007854FEA932C04FB0C542705029D4FEA02
:10071000065847EA1637B5EB08056EEB070C870E4F
:10072000920E47EA811742EA8312A7FB0201B6EB59
:100730000B0164EB00042B0D43EA0C335E1844EB11
:100740001C50DA465146E7FB0201C5F313044FEA99
:100750000B3343EA14534FEA0432019C43EA060385
:10076000A4F10C040294009CCDE900B400F06AF9F5
:1007700003B0BDE8F08F00200146F9E7C10F80EA21
:10078000E0700844CA079623002100F01EB99623A2
:100790000022114600F019B920F00040C10DC0F34D
:1007A000160040F400007F2901DA002070479629E6
:1007B00003DCC1F19601C840704796398840704704
:1007C00000F0004230F000400AD0C10D01F5607128
:1007D000C0F3160042EA0151C208400711437047B6
:1007E0000020014670470000002801DBC0F10040F6
:1007F000002901DBC1F1004181427047002801DB83
:10080000C0F10040002901DBC1F10041884270477E
:1008100030B50B46014600202022012409E021FAD0
:1008200002F59D4205D303FA02F5491B04FA02F5CD
:100830002844151EA2F10102F1DC30BD2DE9F05F64
:100840000546002092469B4688460646814640243F
:100850001BE02846414647462246FFF7D3FC534655
:100860005A46C01A914110D311461846224600F04C
:1008700016F82D1A67EB01084F4622460120002189
:1008800000F00DF817EB00094E41201EA4F1010401
:10089000DFDC484631462A464346BDE8F09F202A21
:1008A00004DB203A00FA02F1002070479140C2F1C7
:1008B000200320FA03F3194390407047202A06DBF7
:1008C000CB17203A41FA02F043EAE07306E041FA1E
:1008D00002F3D040C2F1200291400843194670470C
:1008E000026811441378016018467047D1600449CA
:1008F00051610449116200211161114600F0B0B943
:10090000E10800084D0C0008426842B1016811F886
:10091000013B23B1521EC0E9001218467047012165
:10092000C160881E704742685AB1C368016843B904
:1009300083688B4205D0491E521CC0E9001200207A
:1009400070474FF0FF3070472DE9F04791460F4652
:1009500080460446002614F8015B2DB100F072F9C0
:100960000068405DC007F6D12B2D02D02D2D18D088
:10097000641E4A463946204600F00AFB27B1396812
:10098000A14201D1C7F8008071054FF002040BD5D8
:100990004042002803DD06F01BFF0460A007BDE80D
:1009A000F08746F48066E4E70028F8DA06F010FFE6
:1009B00004606FF00040F2E70029A8BF7047401CB8
:1009C000490008BF20F00100704710B4B0FA80FC65
:1009D00000FA0CF050EA010404BF10BC704749B1A2
:1009E000CCF1200421FA04F411FA0CF118BF012112
:1009F00021430843A3EB0C01CB1D4FEA00614FEAF2
:100A0000102042BF002010BC704700EBC3501044C0
:100A10000029A4BF10BC7047401C490008BF20F04B
:100A2000010010BC704710B5141E73F1000408DA01
:100A3000401C41F1000192185B411A4301D120F0A2
:100A4000010010BD2DE9F04D92469B4611B1B1FA5F
:100A500081F202E0B0FA80F220329046FFF71FFFE9
:100A600004460F4640EA0A0041EA0B0153465A4643
:100A7000084313D0114653EA010019D0C8F14002CF
:100A80005046FFF7BFFB05460E46504659464246C4
:100A9000FFF705FF084305D0012004E02046394652
:100AA000BDE8F08D0020054346EAE0762C4337434D
:100AB0000A986305E40AA0EB08000022FD0A44EA54
:100AC00047540A3002D500200146E9E70105101914
:100AD0006941DDE9084500196941BDE8F04DA2E72B
:100AE0002DE9F04D81EA030404F0004B21F00045AC
:100AF00014464FF0000A23F0004150EA050220D0CE
:100B000054EA01021DD0C5F30A570246C5F3130388
:100B1000C1F31300C1F30A5640F4801543F4801367
:100B2000A7EB0608101BD64608F2FD3873EB05004C
:100B300002D308F1010801E092185B41B8F1000FFF
:100B400003DA00200146BDE8F08D00204FF480114B
:100B5000064684460EE0171B73EB050705D3121BF0
:100B600063EB050306434CEA010C49084FEA3000E9
:100B700092185B4150EA0107EDD152EA030012D00E
:100B800082EA040083EA0501084305D0101BAB414B
:100B900006D20122002306E000224FF0004302E0CB
:100BA0006FF0010253101AEB06004CEB085110EBEA
:100BB0000A0041EB0B01BDE8F04DFFF734BFC1F374
:100BC0000A52C1F3130140F2FF3341F480119A42FB
:100BD00002DA00200146704740F233439A42A2F203
:100BE000334202DC5242FFF70DBBFFF758BE000054
:100BF00030B5041E71F1000404DB4FF000444042A4
:100C000064EB0101141E73F1000405DB1C464FF078
:100C10000043524263EB0403994208BF904230BD47
:100C2000064C074D06E0E06840F0010394E8070039
:100C300098471034AC42F6D3FFF77EFADCC30008C5
:100C4000FCC300080048704798C3000810B504466C
:100C5000FFF7F8FF0068005D00F0010010BD000024
:100C60002DE9F34F8BB04FF0000801F10C000C465A
:100C70004FF0010B46460DF1080A0190626901210F
:100C800001989047051E2DD0252D2CD0216A88472C
:100C9000C0B16269012101989047216A8847002804
:100CA000F7D1411E62690198904700E0761CA16966
:100CB0000B988847216A88470028F7D1E1690B988B
:100CC0008847DBE7A1690B9888470746A84201D10E
:100CD000761CD3E7E1690B9888477F1C02D1B8F1F5
:100CE000000F6FD047E1002762693D463946019801
:100CF00090472A2804D16269012101989047012573
:100D0000DFF888926269012101989047A0F13001D3
:100D10000A290AD24F45E5DC07EB870100EB4107C2
:100D2000303FDFD445F01005ECE7E90601D46FF061
:100D300000476C280AD04C2814D0682815D06A289F
:100D40000DD074281CD07A281AD01DE062690121C8
:100D5000019890476C2802D045F0040514E045F056
:100D600002050DE045F020050AE0626901210198C5
:100D70009047682802D045F0080505E045F4006575
:100D80006269012101989047C4E9015765283DD067
:100D900019DC58287AD00CDC452837D004DC25280B
:100DA00026D0412831D131E046282FD047282CD1F8
:100DB0002CE05B2877D0612828D063287CD0642879
:100DC00023D15AE0D1E06F2848D008DC66281DD036
:100DD00067281BD0692821D06E2816D127E07028FB
:100DE00045D0732868D0752847D078280DD14DE0BC
:100DF000A1690B988847054625283FF469AFE1694A
:100E00000B9888476D1C3FF46AAFB4E023466A46EE
:100E10006FF001000B99AFF300809FE045F04000B8
:100E20006060A80723464FF0000236D43EE0E80792
:100E30007FF447AF2068011D21600068290501D5B6
:100E400006701BE7290701D5068017E7A90703D518
:100E5000F117C0E9006111E706600FE745F04000B7
:100E60006060A80723464FF0080216D41EE040F643
:100E70000E0125EA0100606016E045F04000606068
:100E8000A80723464FF00A0207D40FE045F04000C0
:100E90006060A80708D5234610226FF001000B9967
:100EA000AFF300805AE007E0234610226FF0010004
:100EB0000B99AFF3008051E04FF000094F464B46CD
:100EC000632802D05B2807D041E02079C00601D416
:100ED0000120A06001273AE0626901210198904752
:100EE0005E2805D14FF00109626949460198904793
:100EF000216939B900210A46534643F82120491C8B
:100F00000829FADBB0B3216969B9C11700EBD162D6
:100F100053110AEB830122F01F02821A01200B6891
:100F2000904003430B6062690121019890475D285E
:100F3000E8D1B9F1000F09D00020514651F8202026
:100F4000D24341F82020401C0828F7DB02AB2246A0
:100F500000976FF001000B99FFF7B2F900280CDA47
:100F6000401C08D1BBF1000F05D04FF0FF300DB091
:100F7000BDE8F08FFFE74046F9E7E90701D108F146
:100F8000010806444FF0000B78E60000CCCCCC0CF6
:100F90002DE9F05F82460078002715468B460AF15E
:100FA0000104B946302801D09DB113E014F8010BBB
:100FB0000127782803D0582801D045B10AE00DB1A7
:100FC000102D07D10027102514F8010B02E0082589
:100FD00000E00A250026B0460EE005FB080005FBF0
:100FE00006F1012701EB10461FFA80F8B6F5803FA5
:100FF00000D3B94614F8010B294600F018F8002870
:10100000EBDABBF1000F05D00FB1641E00E05446CF
:10101000CBF80040B9F1000F06D006F0D9FB022151
:101020000160C81EBDE8F09F48EA0640FAE73A288A
:1010300000D2303820F02002412A01D3A2F137003B
:10104000884201D34FF0FF30704770B58C1810F80C
:10105000015B15F0070301D110F8013B2A1106D1FD
:1010600010F8012B03E010F8016B01F8016B5B1E17
:10107000F9D12B0705D40023521E0DD401F8013BF2
:10108000FAE710F8013BCB1A921C03E013F8015B5E
:1010900001F8015B521EF9D5A142D8D3002070BDE2
:1010A00070B5394D002600BFC6EBC60000EB061038
:1010B00005EB8004304605F0D9FF2064304605F08A
:1010C000EDFF6065304606F001F86064304606F0DA
:1010D00015F8A065304606F029F86061304606F044
:1010E0003DF8A061304606F051F86062304606F0E7
:1010F00065F8A062304606F079F8E061304606F007
:101100008DF82062304606F0A1F8E062304606F025
:10111000B5F8761CF6B22063022EC5D35FF0000648
:10112000C6EBC60000EB061005EB800404F11C03BF
:1011300004F1140204F13C0104F1340004F0C4FD94
:1011400004F12C0304F1240204F1500104F14800DD
:1011500004F0BAFD761CF6B2022EE1D3002005F0B1
:10116000BDFE0446002005F0D3FE214600F002F942
:10117000012005F0B3FE0446012005F0C9FE21461A
:10118000BDE8704000F00AB9048100201CB501A937
:10119000684605F05DFE08480099084C016001981A
:1011A000206007480068FFF729FB064821680068AF
:1011B000FFF71AFB1CBD0000FC000020000100200E
:1011C0000401002008010020008840BA7047000098
:1011D000F8B50D460646022853D22A4906EB86008A
:1011E00001EB80043DB3C6F10100C0B200EB80000A
:1011F00001EB80000079002843D1012020712248B2
:1012000022494FF0FF370068A060E068009748432C
:101210004FF47A71B0FBF1F20023042120680AF048
:1012200033FA0AF067F8024600970023012120688C
:101230000AF02AFA01E000202071154C46B1BDB138
:1012400000221021204601F04AFA9DB1012212E04D
:1012500045B100224FF40071204601F040FA1DB163
:10126000012202E00122F5E700224FF4807103E041
:101270000122E6E7002208212046BDE8F84001F0FF
:101280002EBAF8BD3C8400200400002040420F002C
:10129000000C014010B508F081FEC4B200212046C8
:1012A000FFF796FF034A04EB840102EB8101012062
:1012B000487110BD3C8400200148C06870470000A0
:1012C0003C8400200148006A704700003C840020F4
:1012D00001480069704700003C8400200148406AD2
:1012E000704700003C8400202DE9F84F0024134F84
:1012F000DFF84C90DFF84CB03C264FF461684FF4B7
:101300007A7A00BF04EB840007EB8005286870B987
:10131000B9FBFAF1C5E90368234600220AA0CDF81B
:1013200000B00AF067F9286008B900F0CCFA641C34
:10133000E4B2022CE6D3BDE8F88F00003C84002024
:101340000087930395120008626C6F7774696D656E
:1013500072000000022801D300207047044900EB0E
:10136000800001EB800000790028F6D00120704752
:101370003C84002008B94FF46160074A106101B94C
:101380003C21D16009B90121D160002803D08142FC
:1013900001D3401ED06070473C84002008B94FF450
:1013A0006160074A506201B93C21116209B901210B
:1013B0001162002803D0814201D3401E10627047A1
:1013C0003C84002010B5002000F006F8BDE8104075
:1013D000012000F001B800002DE9FC5F064605F091
:1013E00097FD8046304605F079FD0190304605F0C6
:1013F0005BFD07467A4906EB860001EB80046079C5
:10140000DFF8E091002578B16571DFF8DCA1691E95
:10141000DAF8000009F0A8FE208AEEB1A9F8B800B9
:10142000DAF8000009F0DBFCDFF8C0A14FF6FF7B23
:10143000032F01D05F4512D100213046FFF7C8FECF
:101440004FF0FF30009000231A46032120680AF075
:101450001BF90120A0710DE0A9F86800E0E7012F59
:1014600002D0022F16D009E0207918B901213046A8
:10147000FFF7AEFE0021304605F098FF4046D84504
:1014800010D0B8F1000F0DD0216981421BD0C4F8F3
:1014900010801AE001213046FFF79AFECAF800508A
:1014A000A571E7E700213046FFF792FE4FF0FF30CD
:1014B000009000231A46032120680AF0E5F8012075
:1014C000A071256104E0A07910B1CAF80050A5719F
:1014D0000198E06008B90120E060206920B1E1686E
:1014E000814201D3401EE060DAF8007020694FF4B9
:1014F0009678F0B1EFB12179D9B92EB1B8FBF0F2FD
:1015000000FB128131B10AE0B7FBF0F100FB117072
:1015100058B10EE0022801D3410800E00121B7FBD9
:10152000F0F200FB1270884203D101213046FFF730
:101530004FFE2079002540B12D49A0680968081A9E
:10154000E168814226D90D1A24E0206910B32EB13A
:10155000B8FBF0F200FB128149B10DE0B7FBF0F1EE
:1015600000FB117109B1451A14E0054612E002288A
:1015700001D3410800E00121B7FBF0F200FB127239
:101580008A4202D2A1EB020504E0EED9A0EB0200F0
:1015900000EB0105144F4FF0FF31386809F0E4FD0E
:1015A00020794FF4803116B168B101220CE008B106
:1015B000012200E00022A9F86C208D4200D35D4694
:1015C000A9F86E5007E00022A9F8BC208D4200D394
:1015D0005D46A9F8BE503868BDE8FC5F09F0FFBB66
:1015E0003C8400202C010020F00100200800002095
:1015F00004000020FEE7000070B5094DFF221346ED
:1016000005F5807606E000BF10F8014B54402A5DD6
:101610005A40335D491E89B2F6D243EA022070BDBA
:10162000D0C000082DE9F04116460C46050005D053
:1016300024B11EB169882888814202D10020BDE80A
:10164000F081081AFFF79AF80746D4E90010FEF770
:1016500006FF3946FEF73BFF074630602888FFF754
:1016600096F83946FEF701FF2168FEF7FBFE706031
:101670000120E4E770B5114E002500BFC5EBC500A1
:1016800000EB051006EB800404F11C0304F11402C6
:1016900004F13C0104F1340004F016FB04F12C03C6
:1016A00004F1240204F1500104F1480004F00CFBA1
:1016B0006D1CEDB2022DE1D370BD0000048100204D
:1016C0002DE9F047DFF8F4800E460746002500BFFD
:1016D000C5EBC50000EB051108EB810460693860BB
:1016E000A0697860E0693060206A7060284605F083
:1016F00059FC012802D002283ED058E0284605F0C7
:10170000B5FC8146284605F0E1FC8246284605F0F6
:1017100061FC48B1012810D0022822D02846BDE83B
:10172000F047052105F0C0BE6088A08604F11402D0
:1017300004F13C0104F134000CE0C4F840906088EE
:10174000E08604F1140204F13C0104F13400FFF7D7
:1017500069FF0AE0FFF766FF0F21284605F0A4FEA7
:1017600020E0C4F844A06088208704F11C0204F142
:10177000400104F13600EDE704F11400824604F064
:10178000F1FA04F11C00814604F0ECFA102128461D
:1017900005F08AFE4B46524604F13C0104F1340048
:1017A00004F092FA284605F08BF802F07BFC6D1CE1
:1017B000EDB2022D8CD3BDE8F0870000048100203B
:1017C0002DE9F047DFF8F8800E460746002500BFF8
:1017D000C5EBC50000EB051108EB8104606A3860B9
:1017E000A06A7860E06A3060206B7060284605F07F
:1017F00009FC012802D0022841D05BE0284605F010
:101800004DFC8146284605F079FC8246284605F0C5
:1018100013FC48B1012811D0022824D02846BDE885
:10182000F047052105F058BEA088A4F8480004F14F
:10183000240204F1500104F148000DE0C4F8549072
:10184000A088A4F84A0004F1240204F1500104F134
:101850004800FFF7E7FE0BE0FFF7E4FE0F21284604
:1018600005F03AFE21E0C4F858A0A088A4F84C0086
:1018700004F12C0204F1540104F14A00ECE704F1F4
:101880002400824604F07AFA04F12C00814604F028
:1018900075FA1021284605F01FFE4B46524604F10A
:1018A000500104F1480004F00FFA284605F008F84A
:1018B00002F0F8FB6D1CEDB2022D89D3BDE8F08774
:1018C00004810020704772B6FEE70022AFF300806B
:1018D00030B50E4B054601205C7A012C15D8587A9C
:1018E00000241C54587A03EB800045605D7A03F1B4
:1018F00008002A54587A421C5A72303008703A2034
:1019000048702F208870CC70002030BDE00500208A
:1019100006490020C8610648016941F004010161DF
:10192000016941F04001016170470000A8050020F5
:1019300000200240064A0021D16106490A6942F0AE
:1019400002020A614861086940F04000086170477E
:10195000A805002000200240044B0022DA61044A5E
:10196000136943F00103136101807047A80500204B
:101970000020024014480022C168CB06134904D558
:10198000CA6942F00202CA611022C3685B0705D52A
:10199000CB6943F00103CB6142F00402C369DB076A
:1019A00007D0CB6943F00403CB61C16921F0010189
:1019B000C161A2F58071013901D0C2607047C1696F
:1019C00021F00101C161704700200240A8050020FC
:1019D00070B5054600F088FE0646114C09E0681C0B
:1019E00007D025B100F080FE801BA84201D903205A
:1019F00070BDE068C007F2D1E068800601D5202004
:101A0000E060E068C00605D4E069C00702D1E06884
:101A1000400703D5FFF7AEFF012070BD002070BD69
:101A20000020024090F82020012A07D0022A05D089
:101A3000416A41F480214162012070470068426997
:101A40000A43426100207047F0B590F820500468C6
:101A5000A468012D05D0022D03D0416A41F48021F4
:101A600057E014F0406F01D1E5004FD5C4F3016495
:101A70000125A5401D608D684FF4C0739DB1CE68EF
:101A800035434E6845EAC605066803EB0417F55171
:101A90004FF4C275076805EB04150E697E51097D88
:101AA000012905D009E00E88CD6845EA4655EBE7E7
:101AB00001684E5946F480764E511179D5795679A0
:101AC00041EA056195792D0445EA062529434FF43D
:101AD000C676056806EB0416A9511178D57841EA57
:101AE0000561957852782D0445EA022211434FF49E
:101AF000C475026805EB04155151006803EB04112D
:101B0000425842F0010242500020F0BD416A41F4C7
:101B1000001141620120F0BD10B590F8203002683C
:101B2000012B07D0022B05D0416A41F4802141628C
:101B3000012010BDD2F8000240F00100C2F80002FE
:101B4000087D00F01F0301209840D2F81C32834327
:101B5000C2F81C32CB69B3B9D2F80C328343C2F855
:101B60000C328C894B6864F31F434C6902EBC4044C
:101B7000C4F840320C890B6864F31F434C6902EBD4
:101B8000C404C4F84432CB69012B16D1D2F80C320C
:101B90000343C2F80C320C884B6864F31F434C6952
:101BA00002EBC404C4F840320C89CB6864F31F43D1
:101BB0004C6902EBC404C4F844328B69002BD2F8A0
:101BC00004320FD053EA0003C2F804320B69002B31
:101BD000D2F8143208D00343C2F81432096A01293A
:101BE00004D008E08343EFE78343F5E7D2F81C1203
:101BF0000143C2F81C12D2F8000220F00100C2F822
:101C00000002002010BD704770B590F82040012CF4
:101C100005D0022C03D0416A41F4802128E00468F9
:101C200009B32469A40720D04FF4D874056804EBE5
:101C300001142D5915F00405956005682D591AD029
:101C4000ED08556005682C5904F00204D4604FF487
:101C5000DA74056804EB01142E5906F00F06082EFD
:101C60000CD308250DE0E468DCE7416A41F400117B
:101C70004162012070BD6D0D1560E3E72D5905F03F
:101C80000F05156105682D59C5F307259561056890
:101C90002C59240C54614FF4DC72046802EB0112DD
:101CA000A4581C700468A458240A5C700468A458E2
:101CB000240C9C700468A258120EDA704FF4DE7285
:101CC000046802EB0112A4581C710468A458240A89
:101CD0005C710468A458240C9C710468A258120E0C
:101CE000DA71006829B1016941F020010161002029
:101CF00070BDC16841F02001C160F8E702460020D4
:101D000092F82010012901D002290CD111688A68AB
:101D1000520100D501208A68120100D5401C896853
:101D2000C90000D5401C70472DE9F05F05460068EA
:101D300000244669D0F804908768D0F80CB0D0F839
:101D400010A0D0F81880F10748D0F90714D001216D
:101D50008160B80703D5284600F04DFA0CE07807FB
:101D600002D54FF4006407E0380702D54FF48054E1
:101D700002E0284600F03EFAF80516D529684FF42F
:101D800080708860B80503D5284600F036FA0CE06C
:101D9000780502D544F4005407E0380502D544F430
:101DA000804402E0284600F027FAF80316D5296897
:101DB0004FF480308860B80303D5284600F01FFA3E
:101DC0000CE0780302D544F4004407E0380302D560
:101DD00044F4803402E0284600F010FA300707D5BA
:101DE0005FEACB6004D52968102044F40074C86011
:101DF00070074FF0080707D55FEA0B7004D5286815
:101E0000C760284600F05AF9B00706D52868C068B0
:101E1000800702D0284600F053F9700607D55FEA24
:101E2000CA6004D52968102044F480640861B006B3
:101E300007D55FEA0A7004D528680761284600F0D4
:101E4000A9F9F00606D528680069800702D028465F
:101E500000F0A1F9B00308D55FEAC96005D529688B
:101E600010204860284600F097F9F00307D55FEA94
:101E7000097004D528684760284600F0C1F930048D
:101E800046D55FEA497040D5F00504D55FEAC870D1
:101E900001D044F00104B00504D55FEA887001D593
:101EA00044F00204700504D55FEA487001D544F09F
:101EB0000404300529D518F0700F26D008F0700002
:101EC000402815D006DC102809D020280AD0302858
:101ED00016D10AE050280ED0602811D10EE044F04F
:101EE00008040DE044F010040AE044F0200407E088
:101EF00044F0400404E044F0800401E044F48074C1
:101F00002868816921F07001816129680420486096
:101F1000002C05D0686A204368622846FFF773FEEC
:101F2000BDE8F09F70B5040003D094F8200010B114
:101F300004E0012070BD204600F082F820680168AE
:101F400041F00101016000F0CFFB0546052604E0E9
:101F500000F0CAFB401B0A2811D820684068C0075F
:101F6000F6D02068016821F00201016000F0BCFB9E
:101F700005460BE000F0B8FB401B0A2806D9606A52
:101F800040F40030606284F82060D2E72068406846
:101F90008007EFD4207E0128206801683DD021F021
:101FA00080010160607E01282068016838D021F03E
:101FB00040010160A07E01282068016833D021F033
:101FC00020010160E07E0128206801682ED041F0E8
:101FD00010010160207F01282068016829D021F0CC
:101FE00008010160607F01282068016824D021F089
:101FF00004010160D4E902010843D4E90412114349
:1020000008436168491E08432168C8610020606276
:10201000012084F82000002070BD41F08001C0E75D
:1020200041F04001C5E741F02001CAE721F010016D
:10203000CFE741F00801D4E741F00401D9E70000FF
:1020400010B586B0002100910191029103910068C2
:10205000174988422AD11748C16941F00071C1610E
:10206000C16901F000710491816941F0040181614D
:102070008069114C00F0040004904FF4006000905F
:102080006946204600F02AFAA01400900220019030
:10209000032003906946204600F020FA0022072121
:1020A000142000F065FD142000F054FD06B010BDB2
:1020B000006400400010024000080140704700002A
:1020C00000B58FB06B4606AA0021FFF79DFD0028E2
:1020D0005AD107980021C0B2522819D0512853D1A3
:1020E0005FF001008DF808000798000E8DF80900D8
:1020F0000798000C8DF80A000798000A8DF80B006D
:1021000007988DF80C000A98082803D9082002E0E7
:102110000846E7E7C0B29DF80D20002360F30302F4
:102120008DF80D209DF800008DF80E009DF801003F
:102130008DF80F009DF802008DF810009DF8030047
:102140008DF811009DF804008DF812009DF805002F
:102150008DF813009DF806008DF814009DF8070017
:102160008DF8150009480D910DAA02A9406808F0E4
:1021700089FD0D98002807D005494FF08050086070
:10218000BFF34F8FBFF36F8F0FB000BD1001002062
:1021900004ED00E0704770477047000070B50446DA
:1021A00090F82000012804D0606A40F400206062AA
:1021B00018E0022084F820002068016821F0010165
:1021C000016000F091FA05460EE000BF00F08CFAC5
:1021D000401B0A2808D9606A40F40030606205207C
:1021E00084F82000012070BD20684068C007EDD150
:1021F000606270BD704770477047704770477047A6
:10220000704710B590F821100022022905D0042152
:10221000816380F82020012010BD01680B6823F045
:102220000E030B6001680B6823F001030B6090F84C
:102230004030C46B012101FA03F3636080F8211080
:1022400080F82020104610BD2DE9F05F90F8211095
:102250000024022903D004218163012485E0016860
:102260000A6822F00E020A6001680A6822F0010280
:102270000A603F4E3E4FB215DFF8F4C0DFF8F09031
:10228000DFF8ECA0DFF8E8B0DFF8E4E00168783FC1
:1022900013011502ACF1640CA9F15009AAF13C0A32
:1022A000ABF1280BAEF1140E4FF48018B14227D9D0
:1022B000B9420ED0614512D049451DD0514518D0C4
:1022C000594518D0714501D1424615E0294EB14219
:1022D00001D1012210E0274E1436B14201D1102263
:1022E0000AE0244E2836B14206D0224A3C329142BE
:1022F00001D11A4600E02A461E49091F0A602BE058
:10230000B94213D0614517D0494522D051451DD05F
:1023100059451DD0714501D142461AE0B14202D162
:102320004FF0807215E0134EB14201D1012210E04E
:10233000104E1436B14201D110220AE00D4E28365B
:10234000B14206D00B4A3C32914201D11A4600E01C
:102350002A46074980394A60012180F8211000216E
:1023600080F82010416B01B188472046BDE8F09FFE
:1023700080000240080402402DE9F0470546264847
:102380000F460126017E01290FD0012181460176E9
:102390002868DFF888804CF25034022808D0A24622
:1023A0002046FFF715FBA8B131E00220BDE8F08719
:1023B0002046FFF70DFB08BB0120FFF7A9FA2046D6
:1023C000FFF706FBD8F81010064621F00401C8F804
:1023D00010101CE04FF0FF303860AC6811E0204670
:1023E000FFF7A8FA5046FFF7F3FAD8F810100600E6
:1023F00021F00201C8F8101001D03C6007E004F59C
:102400000064D5E9020100EBC120A042E7D8002119
:1024100089F818103046C9E7A805002000200240BE
:102420000348016941F0800101610020704700000C
:10243000002002402DE9F05F07461C488846002432
:10244000017E15461E46012909D0012181460176EB
:102450004CF2503A5046FFF7BBFA18B122E0022086
:10246000BDE8F09F012F02D0022F00D00427D346F1
:10247000DFF83CA0220128463146FDF7C3FE81B2B9
:1024800008EB4400FFF768FA5846FFF7A1FADAF8BC
:10249000102022F00102CAF8102018B9641CE4B21E
:1024A000BC42E7D3002289F81820D9E7A80500200C
:1024B00000200240064900200A69120607D5054A95
:1024C0004A60054A4A600969090600D5012070473B
:1024D0000020024023016745AB89EFCD2DE9F84F7D
:1024E000DFF8C8910024A9F1040B23460F2709F156
:1024F000040AABF1040ED1E00125A54006EA05026D
:10250000AA4276D1DFF8A8C14E68A6EB0C08664552
:102510002BD00DDC032E34D005DC36B3012E19D0C0
:10252000022E2FD11BE0112E16D0122E2AD119E027
:10253000B8F5881F19D006DCB8F5803F15D0B8F57E
:10254000801F1FD111E0B8F5001F0ED0B8F5041F91
:1025500018D10AE0CB6815E0CB681B1D12E0CB68F0
:1025600008330FE0CB680C330CE08B682BB1012BE8
:102570004FF0080303D0456104E0042302E0056145
:1025800000E00023FF2A01D8064601E000F104061E
:102590004FEA840501D9A5F12005D6F8008007FA95
:1025A00005FC28EA0C0803FA05F548EA0508C6F810
:1025B00000804D68ED0070D53E4DAE6946F00106D5
:1025C000AE61AD6924F0030605F0010500953A4DB2
:1025D00006EB050CDCF80850A607360F07FA06F8DC
:1025E00025EA0805DFF8D480404503D14FF0000804
:1025F00025E052E0DFF8C880404502D14FF00108E5
:102600001DE0DFF8C080404502D14FF0020816E01F
:10261000DFF8B480404502D14FF003080FE0DFF847
:10262000AC80404502D14FF0040808E0DFF8A080FC
:10263000404502D14FF0050801E04FF0060808FAC6
:1026400006F848EA0508CCF808804D68D9F800601B
:10265000ED024D4601D5164300E096432E604D68CD
:10266000DAF80060AD02554601D5164300E0964306
:102670002E604D68DBF80060AD035D4601D5164362
:1026800000E096432E604D68DEF80060ED0375466D
:1026900001D5164300E096432E60641C0A68164676
:1026A000E2407FF429AFBDE8F88F00000804014044
:1026B000000011100010024000000140000801401D
:1026C000000C0140001001400014014000180140BE
:1026D000001C01408068084000D0012070470AB10A
:1026E000016170470904FBE70148806870470000FA
:1026F0003C00002070B5040025D094F83D00002572
:1027000020B984F83C50204600F04EF9242084F88B
:102710003D002068016821F0010101602068016826
:1027200041F4004101602068016821F4004101602A
:1027300000F006FB4D4A6168914201D84C4900E027
:102740004C49884201D2012070BD4B492368B0FB3F
:10275000F1F15E6826F03F060E435E6063689342C7
:1027600006D94FF4967359434FF47A73B1FBF3F1E2
:102770002368491C1E6A26F03F06314319626168CE
:10278000914210D84900401EB0FBF1F2521CC2F336
:102790000B02042A01D2042022E0B0FBF1F0401C1D
:1027A000C0F30B001CE0A268F2B301EBC10303EB22
:1027B0000116431EB3FBF6F35B1C43F480431B0579
:1027C00049D092B301EBC10202EB0111401EB0FBF4
:1027D000F1F0401CC0F30B0040F4804040F4004096
:1027E0002168CA694CF6FF739A431043C861D4E963
:1027F000071001432068026822F0C0021143016003
:10280000D4E9030101432068826848F2FF339A4308
:1028100011438160D4E9050108432168CA6822F0A8
:10282000FF021043C86001E00EE016E02068016876
:1028300041F0010101602564202084F83D002563FA
:1028400084F83E50002070BD01EB4106431EB3FBEF
:10285000F6F35B1CB3E70120C2E701EB4101401E28
:10286000B0FBF1F0401CC0F30B00B7E7A0860100FD
:1028700080841E0000093D0040420F002DE9F84F02
:102880001F4690468A460446DDF82890FFF72CFF45
:10289000054694F83D0020287FD1192301224049A4
:1028A0002046009501F02CFB002876D194F83C00DE
:1028B000012872D0012084F83C0020680168C90713
:1028C00003D1016841F0010101602068016821F431
:1028D00000610160212084F83D00102084F83E0052
:1028E00000262664C4F824806785608D20852D48E5
:1028F000E0622B464A465146204601F087FA90B9DD
:10290000206841698069009036E02A4649462046A1
:1029100001F09CFB50B1206C042804D120680168B0
:1029200041F4007101600120BDE8F88F606A216800
:1029300000780861606A401C6062618D491E618593
:10294000218D491E89B2218522685369DB435B07CB
:102950000BD451B100781061606A401C6062608DD8
:10296000401E6085208D401E20852A46494620460F
:1029700001F09AFA0028CED1208D0028C5D154F854
:102980003D0B016841F400710160202004F81E092C
:10299000E67766770020C7E7FFE70220C4E700007C
:1029A000020010000000FFFF30B585B0002100914B
:1029B0000191029103911E4D03681E4C12210322C6
:1029C0001D48AB4216D1A36943F00803A361A36974
:1029D000039203F008030493C023CDE90031694654
:1029E000FFF77CFDE06940F40010E061E06900F46D
:1029F000001019E0114DAB4217D1A36943F0080351
:102A0000A361A369039203F0080304934FF44063A6
:102A1000CDE900316946FFF761FDE06940F48000CF
:102A2000E061E06900F48000049005B030BD000072
:102A30000054004000100240000C014000580040CB
:102A40000248816802781144816070473C00002090
:102A5000074810B5016841F010010160032000F043
:102A6000A7F80F2000F006F800F050F8002010BD85
:102A70000020024030B505461F4887B0C16941F0CB
:102A80001001C161C06906A900F01000009001A802
:102A900000F036F90498B0B100F052F9400017493F
:102AA000174AB0FBF1F11748491E0260416040F23D
:102AB000E7320021C0E903218160816100F004FD5B
:102AC000040003D015E000F03BF9E8E70D4800F002
:102AD0006DFD04000DD1362000F03CF8102D07D21A
:102AE00000222946362000F043F80748056000E040
:102AF000012407B0204630BD0010024040420F00C4
:102B00000010004060050020400000200F4808B57C
:102B1000816941F001018161816901F00101009148
:102B2000C16941F08051C161C069002200F080504C
:102B300000900F21901E00F01BF80548416821F01D
:102B4000E06141F00071416008BD000000100240EA
:102B500000000140002809DB00F01F020121914024
:102B60004009800000F1E020C0F80011704700002B
:102B7000F0B40E4B1B680C46C3F30223C3F10705E8
:102B8000042D00D90425191D072901D2002300E0D6
:102B9000DB1E012606FA05F1491E214099409E40A0
:102BA000761E16403143F0BC04F002BE0CED00E08E
:102BB000064900F0070208684FF6FF03184040EA94
:102BC0000220034A10430860704700000CED00E04B
:102BD0000000FA052DE9F0470F46050061D0434E8D
:102BE000306800F00700B84209D2306820F00700D2
:102BF00038433060306800F00700B84251D128688F
:102C00003B4C810712D5400703D5606840F4E06073
:102C100060602878000703D5606840F46050606009
:102C20006068A96820F0F000084360602878C00759
:102C300028D06868012810D02168022810D08907A0
:102C400000292EDA616821F0030101436160FFF77A
:102C50004BFD804641F288390DE021688903EFE79A
:102C60008901EDE7FFF740FDA0EB0801494502D9D6
:102C70000320BDE8F0876068696800F00C00B0EBE5
:102C8000810FEFD1306800F00700B8420BD93068EF
:102C900020F0070038433060306800F00700B84289
:102CA00001D00120E5E72878400705D56068E9688C
:102CB00020F4E060084360602878000706D560686B
:102CC000296920F4605040EAC100606000F058F8C3
:102CD0006168084AC1F30311515CC84006490860A5
:102CE00006480068FFF7C6FE0020C2E70020024049
:102CF00000100240B6B70008480000204000002045
:102D00000F2202600C4A536803F0030343605368C8
:102D100003F0F0038360536803F4E063C360526818
:102D20004FF4E06303EAD20202610448006800F055
:102D300007000860704700000010024000200240B9
:102D40000448054900684968044AC1F30221515CFE
:102D5000C84070474800002000100240C6B7000875
:102D60000448054900684968044AC1F3C221515C1E
:102D7000C84070474800002000100240C6B7000855
:102D80000E4A51680E4801F00C03042B11D0082B99
:102D90000FD10C48C1F38343C903C05C0AD5516805
:102DA000084AC1F34041921E515C054A5043B0FBB2
:102DB000F1F070470449484370470000001002409A
:102DC00000127A00A6B7000800093D002DE9F84F6F
:102DD000040070D02078C04DC00749D06868C0F3A7
:102DE0008100012807D06868C0F38100022809D15A
:102DF0006868C00306D52868800339D56068002854
:102E0000E7D035E06068B0F5803F0BD010B1B0F589
:102E1000A02F11D0286820F480302860286820F482
:102E2000802002E0286840F480302860606890B11B
:102E3000FFF75AFC06460AE0286840F48020286024
:102E4000F0E700BFFFF750FC801B642873D82868A8
:102E50008003F7D50CE0FFF747FC064605E000BF0E
:102E6000FFF742FC801B6428F0D828688003F7D461
:102E700020789A4E80074FF001094FF0000839D5AD
:102E8000686810F00C0F07D06868C0F38100022852
:102E900009D16868C00306D42868800714D5206962
:102EA000012808D110E02069B0B1C6F80090FFF702
:102EB0001BFC074605E00AE1FFF716FCC01B0228D1
:102EC000C4D828688007F7D52868616920F0F80021
:102ED00040EAC10028600DE0C6F80080FFF704FC5E
:102EE000074604E0FFF700FCC01B022823D828682F
:102EF0008007F7D4207800072CD57948A169D9B18B
:102F0000C0F80090FFF7F0FB074604E0FFF7ECFB8A
:102F1000C01B02280FD8686A8007F7D571484FF4A4
:102F2000FA510068B0FBF1F0009000BF0098411E1C
:102F30000091FAD20EE080E0C0F80080FFF7D4FBE9
:102F4000074604E0FFF7D0FBC01B022875D8686A6B
:102F50008007F7D42078400760D5E8690027C000D3
:102F600008D4E86940F08050E861E869012700F082
:102F7000805000905C480168C90513D401688346FD
:102F800041F480710160FFF7AFFB824606E000BFAD
:102F9000FFF7AAFBA0EB0A0064284ED8DBF800007C
:102FA000C005F5D5E06801280AD008B1052813D07E
:102FB000286A20F001002862286A20F0040002E05C
:102FC000286A40F001002862E06841F2883B98B12D
:102FD000FFF78AFB82460BE0286A40F00400286273
:102FE000EEE700BFFFF780FBA0EB0A0159455AD876
:102FF000286A8007F6D50CE0FFF776FB824605E0ED
:10300000FFF772FBA0EB0A0159454CD8286A8007EC
:10301000F6D41FB1E86920F08050E861E06988B318
:103020006968C1F38101022944D00228C6F8608092
:1030300004D0FFF759FB044638E034E0FFF754FBB7
:10304000074604E0FFF750FBC01B02282BD8286876
:103050008001F7D4206AB0F5803F05D16868A16887
:1030600020F4003008436860D4E908010843696827
:1030700021F4741108436860C6F86090FFF734FBD0
:10308000044606E025E000BFFFF72EFB001B0228E8
:1030900009D828688001F7D51BE000BFFFF724FBA3
:1030A000001B022802D90320BDE8F88F28688001A0
:1030B000F4D40EE00128F7D06868226A00F4803169
:1030C000914204D1616A00F47010884201D001205D
:1030D000EAE70020E8E7000000100240000042425A
:1030E00080044242480000200070004070B5040097
:1030F00009D0606A002540B125616561A56294F838
:10310000510040B10CE0012070BD6068B0F5827FD5
:10311000F4D0E561F2E784F85050204600F040F822
:10312000022084F851002068016821F0400101600C
:10313000A088218900F4827001F404410843A18928
:1031400001F400610843217C01F002010843217D64
:1031500001F001010843218B01F400710843217F34
:1031600001F03801084394F8201001F08001084371
:10317000218D01F40051084321680860A0690421F1
:1031800001EA1040216848602068C16921F40061AB
:10319000C1616565012084F85100002070BD000008
:1031A00030B585B000240094019402940394254D19
:1031B0000368254802210322AB421AD1836943F4F4
:1031C00080538361836903F480530493836943F0DC
:1031D0000403836180691D4D00F004000490A02069
:1031E000CDE90001039269462846FFF777F94020B0
:1031F0001EE0174DAB4222D1C36943F48043C36143
:10320000C36903F480430493836943F00803836133
:103210008069104D00F0080004904FF42040CDE983
:103220000001039269462846FFF758F94FF48040A1
:10323000CDE90004694628460294FFF74FF905B02E
:1032400030BD000000300140001002400008014085
:1032500000380040000C01402DE9FF4F81B01D46B1
:10326000934604464FF001090E9EFFF73DFA0746CC
:1032700094F851006168012806D0B1F5827F3CD1F5
:10328000A168C9BB042838D10298002871D0BBF1CD
:10329000000FFBD0002DF9D094F8500001282CD05D
:1032A0004FF0010A84F850A094F85100042802D08D
:1032B000052084F851004FF00008C4F85480C4F889
:1032C00038B0E587A58702992163E586A586C4F80D
:1032D0004080C4F8448020680168490603D401682E
:1032E00041F040010160E068B0F5006F606808D00F
:1032F000F0B3012D49D081E0FFE7022005B0BDE821
:10330000F08F08B1012D39D1206B21680088C86089
:10331000206B801C2063E08E401EE0862EE020683B
:10332000816889070FD5E18E69B1B9F1010F0AD122
:10333000216B0988C160206B801C2063E08E401ED9
:10334000E0864FF0000920688168C9070CD0E18F42
:1033500051B1C068A16B0880A06B801CA063E08F96
:10336000401EE0874FF00109FFF7BEF9C01B01E0E6
:103370000BE067E0B04201D3701C50D1E08E002812
:10338000CDD1E08F0028CAD13EE0206B21680078C3
:103390000873206B401C2063E08E401EE0862DE009
:1033A0002068816889070FD5E18E69B1B9F1010FF5
:1033B0000AD1216B09780173206B401C2063E08ED9
:1033C000401EE0864FF0000920688168C9070CD0D4
:1033D000E18F51B1C068A16B0870A06B401CA06365
:1033E000E08F401EE0874FF00109FFF77DF9C01B19
:1033F000B04202D3701C01D011E086B1E08E0028EB
:10340000CED1E08F0028CBD13A463146204603F09A
:103410009BF950B12020606584F8508012E084F858
:1034200051A084F85080032068E7A06818B920688C
:10343000C1688068009084F851A084F85080606D65
:103440000028F1D0012059E77047704770B590F817
:103450003C20012A2CD0012480F83C40022280F834
:103460003D2003685A689D6822F070060A6832435E
:103470005A60104B02689A420ED00F4B9A420BD002
:10348000B2F1804F08D00D4B9A4205D00C4B9A42B6
:1034900002D00C4B9A4204D1496825F080031943AD
:1034A000916080F83D40002180F83C10084670BDD6
:1034B000022070BD002C0140003401400004004097
:1034C00000080040000C004010B5040003D094F840
:1034D0003D0010B107E0012010BD002084F83C0041
:1034E000204600F01FF8022084F83D00211D2068CE
:1034F00003F07AFA012084F8460084F83E0084F84C
:103500003F0084F8400084F8410084F8420084F8C9
:10351000430084F8440084F8450084F83D0000200E
:1035200010BD000008B501681D48B1F1804F11D0F1
:103530001C4A91421DD1C16941F00201C161C069BB
:10354000002200F00200009006211D20FFF710FB72
:103550001D201FE0C16941F00101C161C069002265
:1035600000F00100009006211C20FFF701FB1C2049
:1035700010E00D4A914211D1C16941F02001C161B1
:10358000C069002200F02000009005213720FFF7DD
:10359000EFFA3720BDE80840FFF7DCBA08BD0000AD
:1035A00000100240000400400014004090F83D105C
:1035B000012901D001207047022180F83D100168E7
:1035C000CA6842F00102CA6000680E4988420ED003
:1035D0000D4988420BD0B0F1804F08D00B4988428A
:1035E00005D00B49884202D00A49884204D181683B
:1035F00001F00701062903D0016841F001010160D3
:1036000000207047002C01400034014000040040BD
:1036100000080040000C00400168CA6822F0010266
:10362000CA6001680A6A41F211131A4207D10A6A94
:103630009B101A4203D10A6822F001020A6001219C
:1036400080F83D100020704770B5044690F83C00AB
:103650000025012817D0012684F83C60022084F858
:103660003D002068826822F0770222F47F42826067
:103670000868502838D00DDC20284FD005DC90B3E6
:10368000102811D14AE0022070BD302846D04028D1
:103690000AD13BE060282FD070280DD0B0F5805FB4
:1036A00003D0B0F5005F12D0012584F83D60002002
:1036B00084F83C00284670BDCB68D1E90121206820
:1036C00003F0E0F92068816841F0770109E0CB68F8
:1036D000D1E90121206803F0D5F92068816841F41F
:1036E00080418160E1E719E0CA684968206803F019
:1036F000DBF95021206806E0CA684968206803F0B9
:10370000E4F96021206803F0C7F9CEE7CA68496888
:10371000206803F0C9F940212068F4E722680146D7
:103720001046F0E770472DE9F04104460068C6688E
:1037300005694FF00007A90713D5B10711D5F91E88
:10374000016101202077206880698007204602D02F
:10375000FFF7E8FF04E000F07EF8204600F07CF878
:103760002777680716D5700714D521686FF0040015
:103770000861022020772068806910F4407F20468D
:1037800002D0FFF7CFFF04E000F065F8204600F01C
:1037900063F82777280715D5300713D521686FF010
:1037A00008000861042020772068C069800720464F
:1037B00002D0FFF7B7FF04E000F04DF8204600F01C
:1037C0004BF82777E80616D5F00614D521686FF078
:1037D00010000861082020772068C06910F4407F3D
:1037E000204602D0FFF79EFF04E000F034F82046A8
:1037F00000F032F82777E80708D0F00706D02168F4
:103800006FF001000861204600F028F8280608D56E
:10381000300606D521686FF0800008612046FFF76A
:1038200013FE680608D5700606D521686FF04000C3
:103830000861204600F052F8A8060AD5B00608D55F
:1038400021686FF0200008612046BDE8F041FFF7D5
:10385000FCBDBDE8F08170477047000010B504461C
:1038600000681749884201D1FFF7EAF81549206836
:1038700088420DD114490868401C0860642807D3A9
:10388000002008604868401C48608868401C8860C8
:103890000E48844206D10E48006800280FD08047A9
:1038A0000A4808E00B48844209D10B480068002808
:1038B00005D080470748BDE81040FFF7ADBE10BDFA
:1038C000001000400014004000000020B003002061
:1038D00020010020F80300201802002070477047E4
:1038E00070470000F8B5016804460868CA684B696B
:1038F00010F00F0F4FF0000559D003F0010602F44D
:103900009077374365D0C10705D0D10503D5616CE9
:1039100041F001016164410705D5D90703D0616C0D
:1039200041F002016164810705D5D90703D0616CBC
:1039300041F004016164010707D502F02001314321
:1039400003D0616C41F008016164616C00293AD0D8
:10395000800604D5900602D5204603F028F9206899
:103960004069616CC0F38010090700D460B3204641
:1039700003F0F6F820684069400621D5206814302D
:1039800050E8001F21F0400140E80012002AF5D164
:10399000E06BA8B16D494163E06BFEF755FC002870
:1039A00011D0E06B416B01B0BDE8F04008478306E1
:1039B0000FD593060DD52046BDE8F84003F0F7B8C3
:1039C0002046FFF78DFFF8BD2046FFF789FF6564AD
:1039D000F8BD266B2023012E7CD1C6067AD5D606EB
:1039E00078D508684868009048694FF0020640069C
:1039F00040D5E16B086840680004000CE8D0A28D57
:103A00008242E5D9E085886920282DD020680C30D5
:103A100050E8001F21F4807140E80012002AF5D11F
:103A20002068143050E8001F21F0010140E8001226
:103A3000002AF5D12068143050E8001F21F0400121
:103A400040E80012002AF5D184F84230256320684E
:103A50000C3050E8001F21F0100140E80012002A4D
:103A6000F5D1E06BFEF7CDFB6663A08DE18D401ACA
:103A700081B22AE0A08DE18D401A81B2E08D00284C
:103A8000A6D00029A4D022680C3252E8000F20F4FE
:103A9000907042E80007002FF5D12068143050E8FC
:103AA000002F22F0010240E80027002FF5D184F812
:103AB0004230256320680C3050E8002F22F01002BD
:103AC00040E80023002BF5D166632046FFF707FF8F
:103AD000F8BDFFE705062BD5150629D594F841005A
:103AE0002128F5D1A068B0F5805F01D12069B0B17F
:103AF000206A411C2162216800784860E08C401EE9
:103B00000004000CE084E3D12068C16821F080014A
:103B1000C1602068C16841F04001C160D8E7206AF7
:103B20000088C0F308004860206A801C2062E5E736
:103B30004006CDD55006CBD5CA68204622F04002BB
:103B4000CA6084F8413000F023F9C1E7516B0008E6
:103B500070B5040004D094F84100002510B106E0CF
:103B6000012070BD84F84050204600F023F8242046
:103B700084F841002068C16821F40051C1602046EA
:103B800003F076F82068016921F490410161206812
:103B9000416921F02A0141612068C16841F4005166
:103BA000C1606564202084F8410084F842006563A8
:103BB000002070BDF0B585B00024009401940294FB
:103BC00003944449424F06680D15022203234248DC
:103BD000BE4220D1CE6946F40026CE61CE6906F4FD
:103BE000002604968E6946F010068E61896901F000
:103BF0001001CDE90331CDE9005269460546FEF7D3
:103C00006DFCF814CDE90004694628460294FEF7DD
:103C100065FC05B0F0BD314FBE422DD1CD6945F4F4
:103C20008015CD61CD6905F4801504958D6945F049
:103C300010058D618D6905F0100504958D6945F0BD
:103C400020058D618969039301F020010491B1146D
:103C5000CDE900126946FEF741FC0420CDE90004DD
:103C600069461F480294FEF739FC002205213520E1
:103C7000FEF77EFF352028E01A488642C9D18869C0
:103C800040F480408861886900F48040049088692D
:103C900040F0040088618869694600F004000490DF
:103CA0007015CDE90002104E03933046FEF716FC66
:103CB000CDE90054694630460294FEF70FFC00221D
:103CC00005212520FEF754FF2520FEF743FFA0E73E
:103CD000004C004000100240001001400050004025
:103CE00000140140003801400008014090F84230C3
:103CF000202B01D00220704721B11AB100230363A9
:103D000003F012B80120704770B5044600680E49F0
:103D10000E4D884207D1A87800F0DEFF0122A91CD1
:103D20000B48FFF7E3FF0B49206888420AD1E87887
:103D300000F024FCBDE8704004490122C91C06487B
:103D4000FFF7D4BF70BD00000038014028020020FA
:103D50001805002000500040D004002090F84130A9
:103D6000202B01D00220704779B172B101628284A8
:103D7000C28400214164212180F841100068C1689B
:103D800041F08001C16000207047012070470000B1
:103D90002DE9F04104460D49006800258E140C4FB2
:103DA000884205D13146384602F0D0F909480570FD
:103DB00009492068884206D13146384602F0C6F9E2
:103DC0000448401C0570BDE8F08100000038014047
:103DD000000C01402802002000500040FEE701686E
:103DE0004A69D24352050FD46FF480624A610021C0
:103DF00040F8301F202242738173026942F00402AE
:103E0000026101730120704700207047F8B5044635
:103E1000C06A1E460D461746082807D0012805D05F
:103E200010F5803F02D0206B122804D12068016871
:103E300041F480710160134600224FF001112046C9
:103E4000009600F05DF840B120680068C00502D51A
:103E50004FF4007020640320F8BD2069B0F5804F56
:103E60000ED00620216800EAD51040F0F00008616D
:103E700033463A460B49204600F08AF878B902E00A
:103E800005F0FE0000E0E8B221680861054933460C
:103E90003A46891F204600F07BF80028DCD001203C
:103EA000F8BD00000800010070B516460D46044636
:103EB0001EE02046FFF793FF08B1012070BD681C8B
:103EC00016D0FEF711FC801BA84200D885B92068E7
:103ED0004069C04340070BD5002044F8300F202133
:103EE0006173A073216941F0200121612073E4E72F
:103EF00020684069C0434007DBD4002070BD00004B
:103F00002DE9F047984617460D460446C1F307468B
:103F1000DDF820902AE000BFB8F1FF3F26D0FEF781
:103F2000E3FBA0EB0901414502D8B8F1000F1DD118
:103F30002068012E16D0806925EA00000004000CDC
:103F400012D00020B84211D1002044F8300F2021B7
:103F50006173A073216941F0200121612073012068
:103F6000BDE8F0874069E7E70120EBE72068012E14
:103F70000AD0806925EA00000004000C06D0002069
:103F8000B842C9D00020EBE74069F3E70120F7E72A
:103F90002DE9F047984616460D4604464FF00009B5
:103FA0004FF0200AC1F3074723E020684069C0436F
:103FB000400515D42068016841F400710160216852
:103FC0006FF480604861C4F8309084F83DA084F8B4
:103FD0003E90216C41F00401216484F83C9021E082
:103FE000701C06D0FEF780FBA0EB0800B04203D89F
:103FF00016B1012F1FD021E02068012F15D0806954
:1040000025EA00000004000C18D000BF44F8309FDF
:1040100084F80DA084F80E90216941F020012161FF
:1040200084F80C900120BDE8F087406925EA000083
:104030000004000CEAD12068406901E02068806932
:1040400025EA00000004000CAFD1ECE770B516467D
:104050000D4604461EE02046FFF7C1FE08B10120D0
:1040600070BD681C16D0FEF73FFB801BA84200D82D
:1040700085B920684069C04300060BD5002044F88C
:10408000300F20216173A073216941F0200121616B
:104090002073E4E720684069C0430006DBD40020B9
:1040A00070BD00002DE9F0434F48504987B050F8EB
:1040B000302F0A6042684A6082688A60C268CA60BB
:1040C00002690A6142694A6182698A61C269CA6198
:1040D000026A0A62426A4A62826A8A62C26ACA6280
:1040E000026D0A63426D4A63826D8A63C26DCA6360
:1040F000026E0A64426E4A64826E8A64C26ECA6448
:10410000026F0A65426F4A65826F8A65C26FCA652F
:104110000C4601F1600318220021303854F8215078
:1041200043F82150491C9142F8DB30F8686F4FF694
:10413000FD7541880491B0F85040B0F852000590E8
:10414000701EA84203D8314604A804F017F8601E78
:10415000A84203D8214605A804F010F8234D2448AE
:104160006035C5E918060498C5E91A04059828675A
:10417000FEF7A0F901201F4CCDE90240002100917B
:1041800006A96846FEF7F8F84FF0FF3960B9DFF886
:1041900068802646002700BF55F8272000233146B7
:1041A0000220FEF747F928B1FEF73AF9484607B072
:1041B000BDE8F083361D7F1C1D2F01DA4645EBD389
:1041C000FEF72EF900204146226855F820309A4229
:1041D00001D00020EBE7401C241D1D2801DA8C4291
:1041E000F2D30120E3E700002C01002058830020D7
:1041F00046574C42000001080008010800B501883C
:10420000827849BA090441EA0221C27889B011438F
:104210000391042104910021059102798DF81C106D
:1042200002F00F02069241798DF8001081798DF825
:104230000110C1798DF80210017A8DF80310417ACE
:104240008DF80410817A8DF80510C17A8DF806106A
:10425000007B8DF807000648FDF750FD0028FAD0D6
:1042600008AB6A4602A90248FDF7EEFB09B000BDA3
:104270003002002010B58AB000220E21032006F083
:10428000B9FB124C606008B9FDF71DFB00200090DF
:1042900001900290039004900590069001200790F1
:1042A00008900E20099069460948FDF735FC08B1D1
:1042B000FDF709FB552020700548FDF76FFF02212F
:1042C0000348FDF7AFFB0AB010BD0000100100204D
:1042D00030020020F0B5B5B04748484A002118AB7D
:1042E00010C843F82140491C182901DA9042F7D33D
:1042F0001D4618236C46002155F8216044F82160C2
:10430000491C9942F8DB3E4C009944F8301F019952
:1043100061600299A1600399E160049921610599A6
:1043200061610699A1610799E16108992162099982
:1043300061620A99A1620B99E1620C9921650D995C
:1043400061650E99A1650F99E16510992166119932
:1043500061661299A1661399E1661499216715990E
:1043600061671699A1671799E16700F11401303C64
:1043700091423ED80168234A91423AD14668816809
:104380000291C56800694FF4803103904FF4616079
:104390008E4200D306468D4200D30546029A3C2049
:1043A0008A4200D30290039A8A4200D30390701E7F
:1043B0004FF6FD77B84203D8314602A803F0DEFE7F
:1043C000681EB84203D8294603A803F0D7FE0E4F53
:1043D0004FF0FF31386806F0C7FE24F8686F029886
:1043E0006080A4F850500398A4F85200386806F092
:1043F000F6FC35B0F0BD000000000108000801081F
:104400002C01002046574C42F001002070B5184D99
:10441000687801282BD1174C00266E7094F8401054
:10442000042922D32046FDF7E7F8F0B96178032983
:1044300005D00120062905D0102916D10CE000F086
:104440004DF812E094F8401079B121782A78914221
:104450000BD184F8D00008E094F8401029B12178FD
:104460002A78914201D184F8D10084F8406070BD6F
:1044700008020020648400202DE9F8430025154C33
:10448000154E884681466F1E42464946207800F008
:10449000A7F806F02FFF0246009700230121E069EC
:1044A00007F0F2F8FFF7B2FFA068012896F8CF00F6
:1044B00002D00028F6D004E018B96D1C15F0FF05F5
:1044C000E2D00020A06096F8CF00002800D00120A4
:1044D000BDE8F88308020020648400202DE9F0473D
:1044E000244D95F84000002823D0EC1CAE7800271E
:1044F000DFF884A005F1D2084FF0010916E000BFF3
:10450000B5F8CA003844322827D014DC0A281CD059
:104510000B280ED12046FCF757FEA8F80200AAF897
:10452000160000BFA41C85F8CF907F1CB7EB560F78
:10453000E6DBBDE8F087332815D03D28F9D12046C9
:10454000FCF742FEA8F80800ECE72046FCF73CFE2A
:10455000A8F80000AAF81400E4E72046FCF734FEAF
:10456000A8F80400DEE72046FCF72EFEA8F80600B7
:10457000D8E70000648400202C01002070B50446B8
:104580000F4800210F4A40680F4B05E052F83150A8
:10459000854204D0491CC9B21D68A942F6DB02EB72
:1045A000C1000A49406802F063F9094991F84000E6
:1045B000402804D20C5411F8400F401C087070BD04
:1045C00008020020D0C2000810C30008D54500082A
:1045D00064840020014901204870704708020020CF
:1045E0002DE9F0410E4E0D46002706F1440101234E
:1045F00078540320585402232C0A5C544554042058
:10460000130A4354052014464254062006F8C40FEA
:1046100000F03AF8F772B472F580BDE8F08100005E
:1046200064840020F0B4174D002605F144041027DF
:1046300030550120075502200F0A07550320015568
:104640000420062106550520025550000855072074
:1046500085F8C40000200CE095F8C4103D290ED860
:104660001E5C0E5595F8C410491C401C85F8C410FA
:1046700080B2B0EB420FEFD3F0BC00F005B8F0BC55
:10468000704700006484002070B50C4C0B48443027
:1046900014F8C41F0546FCF7AFFF2278010A5155F4
:1046A0002178491CC9B2217048552078401CC1B2FC
:1046B00021702846BDE8704001F06ABD6484002086
:1046C0002DE9F84F0025164C164E90468946824635
:1046D0006F1E43464A4651462078FFF7A3FF06F077
:1046E00009FE0246009700230121E06906F0CCFF95
:1046F000FFF78CFEA068012896F8D10002D00028B0
:10470000F6D004E018B96D1C15F0FF05E1D00020CB
:10471000A06096F8D100002800D00120BDE8F88FF5
:1047200008020020648400202DE9FE4F454C00253E
:104730004FF0030A84F83D5094F83C00082803D059
:1047400084F83DA0BDE8FE8FA01CFCF73DFD80462F
:10475000201DFCF739FD070007F107004FEAD006DE
:1047600047D008EB0700401C052842D80020A94686
:10477000E84603E008F80090401C80B2B042F9D34C
:10478000DFF8C4B04FF0FF31DBF8000006F0ECFCBE
:10479000002524E02D4800EBC50150F8350089883C
:1047A000FDF798FF35B1012D07D0022D08D0032D5C
:1047B0000BD108E02649488307E02549888304E0B7
:1047C0002349C88301E02249088408EBD50205F09B
:1047D00007031178984001436D1C1170ADB2BD42C2
:1047E000D8D3DBF8000006F0FAFA94F83D0038B1AF
:1047F00002E0022084F83D00C0B200F0A1FAA1E777
:10480000104822783E30012109F8002062780A54CD
:10481000022142460E5484F83EA100210AE094F899
:104820003E51535C2B5494F83E315B1C491C84F878
:104830003E3189B2B142F2D394F83E1100F0A6FAAB
:1048400080E7000018820020F0010020A8C00008C6
:104850002C0100202DE9F04F384CB3B04FF0000987
:1048600084F83D9094F83C000326082803D000BF4C
:1048700084F83D602DE0A01CFCF7A6FC8346201DBB
:10488000FCF7A2FC0500F3D0642DF1D800274FF00F
:10489000020AE84618E000BF08EB4701584600F05E
:1048A00053F910B1022803D008E084F83DA010E0CD
:1048B0007F1C0BF10100BFB21FFA80FB0BF101005E
:1048C0007F1C1FFA80FBBFB2AF42E5D394F83D00D6
:1048D00030B194F83D0000F033FA33B0BDE8F08F0A
:1048E000164822783E30012109F8002062780A54E7
:1048F0006A000AF8002084F83E610021424615E073
:1049000094F83E6112F81130335494F83E3102EBC2
:1049100041065B1CDBB284F83E3176781E5494F875
:104920003E315B1C491C84F83E3189B2A942E7D371
:1049300094F83E1100F02AFACFE700001882002018
:104940002DE9F041284D0020032785F83D0095F81A
:104950003C00082803D000BF85F83D7024E0A81C67
:10496000FCF732FC0646281DFCF72EFC040003D0A1
:10497000B0F57F4FF0D101241C4F4FF0FF31386864
:1049800006F0F2FB1A481B4BA6B1012E17D0022EDF
:104990001AD0032E1CD0022085F83D00386806F09E
:1049A0001EFA95F83D00D0B195F83D00BDE8F04104
:1049B00000F0C6B94483E2B24FF400710BE0848387
:1049C000E2B24FF4807106E0C483E2B2102102E04B
:1049D0000484E2B208211846FDF781FEDEE7BDE857
:1049E000F04100F0C1B9000018820020F001002061
:1049F0002C010020000C014010B5104C002084F860
:104A00003D0094F83C00082801D003200BE0A01CD6
:104A1000FCF7DAFB211D00F0D5F918B194F83D0040
:104A200040B102E0022084F83D00BDE81040C0B271
:104A300000F086B9BDE8104000F096B91882002059
:104A40002DE9F0411F4C0020032584F83D0094F827
:104A50003C000B280BD3A01CFCF7B6FB0646201D20
:104A6000FCF7B2FBA1790746B1EB470F02D084F8FF
:104A70003D501CE0002511E004EB45013046C91D06
:104A800000F0A0F9022801D070B103E06D1C761C83
:104A9000EDB2B6B2761C6D1CB6B2EDB2BD42EBD330
:104AA00094F83D0048B102E0022084F83D0094F8FB
:104AB0003D00BDE8F04100F043B9BDE8F04100F031
:104AC00053B900001882002070B51D4D4FF0FF3122
:104AD000E86806F08DFA1B4C01281DD194F83C10B3
:104AE000042919D32046FCF787FDA8B92078297836
:104AF000884211D16078052818D004DC01280FD035
:104B0000032804D10FE0062813D0102814D0012068
:104B100084F83D0000F014F9002084F83C0070BDDA
:104B2000FFF702FEF8E7FFF795FEF5E7FFF708FF4E
:104B3000F2E7FFF761FFEFE7FFF782FFECE7000026
:104B400018010020188200202DE9F0410D4649F699
:104B5000414108445E4E87B249F64C4230684FF0FE
:104B6000FF31974231D806F0FFFAA7F51C475948A4
:104B7000413F0C2F1CD2DFE807F0061B081B6B0A15
:104B80001B0C1B0E1012046877E0446875E0C468C3
:104B900073E0046971E0848A0EE0C48A0CE0048B3F
:104BA00014F0FF0708D000F0E3FE47EA002403E01A
:104BB000306806F014F949E0306806F010F9200A70
:104BC00028706C700120BDE8F081A7F51C444D3CB5
:104BD000252C04D806F0C8FA3E48243008E0A7F592
:104BE0001C47733F252F31D806F0BEFA3948743080
:104BF0004C2CDDD2DFE804F0292928282C27272691
:104C0000262E2E303032323434363638383A3A3C6A
:104C10003C3E3E40405355575A5D606366692929C2
:104C200028282C272726262E2E30303232343436B0
:104C30003638383A3A3C3C3E3E40405355575A5D30
:104C400060636669A5E7A2E79FE79CE70020BAE7F3
:104C50000489B1E7446910E084690EE0C4690CE09E
:104C6000046A0AE0446A08E0846A06E0C46A04E070
:104C7000046B02E0446B00E0846B306806F0AFF830
:104C80001448210E001F046029700168090C697026
:104C90000188090AA9700078E870022093E7848FE0
:104CA0008AE7C48F88E7B0F8404085E7B0F8424013
:104CB00082E7B0F844407FE7B0F846407CE7B0F8C0
:104CC000484079E7B0F84A4076E7B0F84C4073E7DF
:104CD000F00100202C01002070B504460F4800218F
:104CE0000F4A40680F4B05E052F83150854204D01E
:104CF000491CC9B21D68A942F6DB02EBC1000A4992
:104D0000406801F0A1FD094991F83C003C2804D21B
:104D10000C5411F83C0F401C087070BD18010020A5
:104D2000D0C2000810C30008314D000818820020CE
:104D300002480021C06806F004B8000018010020F5
:104D4000084908B50A788DF80020497841F08001BB
:104D50008DF801108DF802000321684600F016F866
:104D600008BD0000188200201CB5074A00206946D3
:104D7000135C0B54401CC0B20628F9D306216846C8
:104D800000F004F81CBD00001882002030B50C466D
:104D90000A46C1B0054601466846FBF743FA21467C
:104DA0002846FCF729FC010A0DF80410641CE1B246
:104DB0000DF80100491CC9B2684601F0CDF941B0B7
:104DC00030BD00002DE9F0410E4649F6414108444E
:104DD00085B23046FCF7F8F9074649F64C40984C46
:104DE0004FF0FF3185424CD8206806F0BDF9A5F59B
:104DF0001C45DFF85082413D0C2D3ED2DFE805F026
:104E0000063D103D3D1A3D243D2E3134B01CFCF7CB
:104E1000DBF90146384601F05DFAC8F8000073E09E
:104E2000B01CFCF7D1F90146384601F053FAC8F836
:104E3000040069E0B01CFCF7C7F90146384601F0F0
:104E400049FAC8F80C005FE0B01CFCF7BDF9014658
:104E5000384601F03FFAC8F8100055E0A8F8147081
:104E600057E0A8F8167054E017F0FF0002D0A8F839
:104E700018004EE0A8F818704BE0206805F0AFFF6E
:104E80003FE0A5F51C48A8F14D08B8F1250F02D860
:104E90006C4D243506E0A5F51C45733D252D30D815
:104EA000684D7435206806F05FF9B8F14C0FE4D214
:104EB000DFE808F034343D3D2646464F4F585861F0
:104EC000616A6A73737C7C85858E8E9797A0A0A992
:104ED000A9B2B4B6B9BCBF2626C234343D3D26467D
:104EE000464F4F585861616A6A73737C7C85858E22
:104EF0008E9797A0A0A9A9B2B4B6B9BCBF2626C206
:104F0000BBE70020BDE8F081206805F068FF0220C3
:104F1000F8E7206805F063FF0120F3E7B01CFCF719
:104F200053F90146384601F0D5F92860ECE7B01C8A
:104F3000FCF74AF90146384601F0CCF96860E3E72E
:104F4000B01CFCF741F90146384601F0C3F9E860AE
:104F5000DAE7B01CFCF738F90146384601F0BAF937
:104F60002861D1E7B01CFCF72FF90146384601F063
:104F7000B1F96861C8E7B01CFCF726F9014638466C
:104F800001F0A8F9A861BFE7B01CFCF71DF90146C4
:104F9000384601F09FF9E861B6E7B01CFCF714F958
:104FA0000146384601F096F92862ADE7B01CFCF7DF
:104FB0000BF90146384601F08DF96862A4E7B01C90
:104FC000FCF702F90146384601F084F9A8629BE734
:104FD000B01CFCF7F9F80146384601F07BF9E862AD
:104FE00092E7B01CFCF7F0F80146384601F072F980
:104FF000286389E7B01CFCF7E7F80146384601F062
:1050000069F9686380E7B01CFCF7DEF801463846B2
:1050100001F060F9A86377E7AF877AE7EF8778E771
:10502000A5F8407075E7A5F8427072E7A5F84470DE
:105030006FE7A5F846706CE7A5F84C7069E70000CB
:10504000F00100202C0100200F4810B50D4901602F
:105050000821416000214FF460228160C0E9031201
:105060004FF480124261017641768176C1760177F4
:105070004177FCF757FF002803D0BDE81040FCF74C
:1050800022BC10BD006400403002002010B504496D
:105090000448FCF71AFC0249491E087010BD0000C4
:1050A000350000202000002038B500F0AFFE0120C0
:1050B00000901F4B1FA21E21002000F021FF01F0D5
:1050C00021F804F03DF8FFF7D5F8042005F087FC3F
:1050D0001B49086018B31B4A00211B4804F028FA3A
:1050E0001A4C184A002120602432194804F020FA92
:1050F000144A606048320021164804F019FA114A37
:10510000A0606C320021144804F012FA0D4AE060ED
:1051100090320021114804F00BFA206138BD502074
:1051200080F31188BFF34F8FBFF36F8FFEE700004E
:105130009CC0000877616974696E67207364200001
:10514000F0010020F0B60008416800080C000020C3
:1051500045560008E9550008CD5600086555000879
:105160002DE9F04786B0002446480094019402944B
:105170000394816941F020018161816901F020017E
:105180000491816941F010018161816901F0100190
:105190000491816941F004018161816901F0040198
:1051A0000491816941F0080181618069DFF8D8903C
:1051B00000F00800049000224FF491714846FDF77A
:1051C0008EFADFF8C880002208214046FDF787FAF2
:1051D000DFF8BCA0002241F21C315046FDF77FFAF7
:1051E000012220215046FDF77AFA0125CDE900542D
:1051F000694648460295FDF771F922200326CDE95C
:105200000005CDE9024669464846FDF767F90820E2
:105210000227CDE90005CDE9024769464046FDF782
:105220005DF90420CDE90005CDE902466946504606
:10523000FDF754F941F21800CDE90005CDE9024728
:1052400069465046FDF74AF98020CDE900046946D9
:1052500048460294FDF742F92802CDE90005CDE960
:10526000024769464846FDF739F94FF44870CDE9E1
:105270000005CDE9025669465046FDF72FF906B004
:10528000BDE8F08700100240001001400008014016
:10529000000C01400D4810B50B4901600C494160FC
:1052A00000214FF480428160C0E9031241618161B5
:1052B000C1610162FDF71EFA002803D0BDE810406D
:1052C000FCF701BB10BD0000005400405802002054
:1052D000801A06000D4810B50B4901600C49416069
:1052E00000214FF480428160C0E903124161816175
:1052F000C1610162FDF7FEF9002803D0BDE810404E
:10530000FCF7E1BA10BD000000580040AC020020DC
:10531000801A0600104810B50E4901604FF48271E2
:10532000416000218160C1604FF400720161C0E9F9
:1053300005120822C0E90721416281620A21C16287
:10534000FDF7D4FE002803D0BDE81040FCF7BBBA3F
:1053500010BD00000030014000030020104810B5CF
:105360000E4901604FF48271416000218160C1608B
:105370004FF400720161C0E905120822C0E907215B
:10538000416281620A21C162FDF7B0FE002803D0AC
:10539000BDE81040FCF797BA10BD0000003800408F
:1053A0005803002010B586B00024164800940194DC
:1053B0000294039404944FF08041059401604721C6
:1053C000C0E901144FF6FF71C0E903148461FEF7D0
:1053D0007BF808B1FCF777FA4FF4805000906946EB
:1053E0000848FEF731F908B1FCF76DFA049404A9F6
:1053F00004480594FEF72AF8002801D0FCF763FA68
:1054000006B010BDB003002010B586B000241748C8
:105410000094019402940394049413490594016048
:105420004721C0E901144FF6FF71C0E903148461FC
:10543000FEF74AF808B1FCF746FA4FF480500090A6
:1054400069460A48FEF700F908B1FCF73CFA0494F3
:1054500004A906480594FDF7F9FF002801D0FCF7E0
:1054600032FA06B010BD000000040040F80300202E
:105470001CB500240F4800940D4901940160472198
:10548000C0E9011442F20F71C16080218161FEF711
:105490001BF808B1FCF717FA009469460548019417
:1054A000FDF7D4FF002801D0FCF70DFA1CBD000069
:1054B00000140040400400200C4810B50A49016067
:1054C0004FF4E1314160002181600C22C160C0E9EC
:1054D00004128161C161FEF73BFB002803D0BDE8E7
:1054E0001040FCF7F0B910BD004C004088040020CB
:1054F0000C4810B50A4901604FF4E13141600021C8
:1055000081600C22C160C0E904128161C161FEF7B3
:105510001FFB002803D0BDE81040FCF7D4B910BD34
:1055200000500040D00400200C4810B50A4901602A
:105530004FF416514160002181600C22C160C0E926
:1055400004128161C161FEF703FB002803D0BDE8AE
:105550001040FCF7B8B910BD003801401805002014
:10556000FEE7000008B503220021012005F042FA01
:10557000184C03220021A061012005F03BFA002312
:105580001A461946606105F0CDFA134800230090D1
:105590001A464FF47A7111A006F02CF81149E06117
:1055A000606848600846FEF7D3FA01F07FF94FF4CF
:1055B000FA74084A02210C320A20FFF781F82046CB
:1055C00005F018F802210A20FEF756FF204605F0E4
:1055D00011F8EEE708020020F16A00087278746999
:1055E0006D657200D004002000210846FBF7F0FD35
:1055F00000210120FBF7ECFD00F082FA0D480E4976
:10560000006848600846FEF7A3FA03220021012043
:1056100005F0F0F90949086000F0D6FDFEF75AFEE2
:10562000FBF73EFDFCF726F801F036F9FFF74CFAE0
:10563000FCE700001C0100201805002024010020C8
:10564000FEE700008AB0FBF74FFE0025144C154E14
:105650006F1E3946206805F087FD13491348FCF793
:105660002FF813491348FCF7ABF8206805F0B7FB97
:10567000FBF78CFDFBF7A6FE0FA2202101A83368E3
:1056800002F07CF8104B01AA01210020009500F0E7
:1056900037FC00F037FD642004F0ACFFD9E70000D0
:1056A000F001002004000020E4000020DC000020C5
:1056B000F4000020EC00002054696D653A202020A1
:1056C00020256C7573000000A4BA000890B07648DD
:1056D00001F014FA754EDFF8D881764864220BA9E0
:1056E000006805F09BFB012805D10DF132019DF802
:1056F0002C0000F079FA01F005FE022802D8C0B2B1
:1057000000F06CFA01F0EAFD00F060FA02AA01A9CB
:10571000684600F033F9009830600199C8F800102D
:10572000BDF8082001F002FE634F4FF0FF313868EA
:1057300005F01AFDDFF88491002400BFC4EBC4001B
:1057400000EB041109EB81052046A96801F07CFEFD
:105750002046E96801F090FE298A204601F0F6FF14
:10576000641CE4B2022CE9D3386805F038FBDDE9AB
:105770000001534A00F00EFB002001F0E3FB074656
:10578000002001F0F7FB0446012001F0DBFB82461C
:10579000012001F0EFFB0F90002001F087FD814612
:1057A000012001F083FD83462046FBF709F80446FB
:1057B0000D463846FBF704F88DE8330041A21C2162
:1057C00004A801F0DBFF0024454B04AA0A2120466F
:1057D000009400F095FB4B4642A21C2104A801F066
:1057E000CDFF3F4B04AA12210020009400F088FB5B
:1057F0000F98FAF7E5FF05460F465046FAF7E0FF27
:105800008DE8A3003EA21C2104A801F0B7FF344B91
:1058100004AA1A210020009400F072FB5B463FA20C
:105820001C2104A801F0AAFF2D4B04AA222100206C
:10583000009400F065FBD8F80000FAF7C1FF0546B8
:105840000F463068FAF7BCFFCDE90001CDE90257F9
:1058500039A21C2104A801F091FF214B04AA2A219E
:105860000020009400F04CFB01F00CFB034639A231
:105870001C2104A801F082FF01F004FBA0F5807157
:10588000FF3901D0012000E000200090144B04AA51
:105890003221002000F034FB0348FEF7AFFC322039
:1058A00004F0A8FE19E700002C8400200401002069
:1058B0000801002014010020F001002004810020D4
:1058C000140200205331204E4F782025352E3266A9
:1058D000204F322025352E32662020202020000047
:1058E000A4BA000853312073746174653A20257599
:1058F00020202020202020202020202020200000E8
:105900005332204E4F782025352E3266204F3220DC
:1059100025352E32662020202020000053322073AF
:10592000746174653A2025752020202020202020D5
:1059300020202020202000004F7574204E4F78201A
:1059400025352E3266204F322025352E3266202016
:105950002020000073746174653A20257520202092
:105960002020202020202020202020202020000077
:1059700001480078704700000C0100202DE9FC5F11
:1059800080464FF0000B5C480F46CDF800B04178E0
:105990001646D9465D4689B1012928D002294FD043
:1059A000B8F1000F01D0C8F800B00FB1009838600E
:1059B000002E01D0A2F80090BDE8FC9F8478022C54
:1059C00000D300242046FBF7C5FC58B1C4F1010008
:1059D000C5B22846FBF7BEFC20B933463A464146DD
:1059E000284628E033463A464146204623E0002038
:1059F000FBF7B0FC18B10120FBF7ACFC90B1012023
:105A0000FBF7A8FC18B10020FBF7A4FC78B1002438
:105A1000204600F0CBF80028E4D1641CE4B2022C4C
:105A2000F6D304E033463A464146012003E03346CC
:105A30003A464146002002B0BDE8F05F02F0E2BB0A
:105A40004FF0000A54462046FBF784FCD8B92046A4
:105A500000F0ACF8B8B1C4EBC400284900EB041066
:105A600001EB80095846D9F80810FAF7A6FC8346DE
:105A7000D9F80C100098FAF7A0FC0090B9F8109033
:105A80006D1CEDB2A246641CE4B2022CDBD305B35C
:105A90002846FAF77CFE014601905846FAF717FDB2
:105AA0000446DDE90001FAF712FD022D01D30221BF
:105AB00000E05146104AB8F1000F117001D0C8F84B
:105AC000004007B13860002E3FF476AFA6F8009092
:105AD00072E70020FBF73EFC20B90120FBF73AFCFF
