:020000040800F2
:10000000B8B20020DD010008514F0008D5390008C2
:10001000314E000839120008136400080000000087
:100020000000000000000000000000004501000882
:10003000F51400080000000089010008015F0008B5
:10004000F7010008F7010008F7010008F7010008B0
:10005000F7010008F7010008F7010008F7010008A0
:10006000F7010008F7010008F7010008F701000890
:10007000F7010008F7010008F7010008F701000880
:10008000F7010008F7010008F7010008F701000870
:1000900031630008F7010008F7010008F7010008C4
:1000A000F7010008F7010008F7010008F701000850
:1000B0007D5F0008895F0008F7010008F70100086C
:1000C000F7010008F7010008F7010008F701000830
:1000D000F701000825630008F7010008F701000890
:1000E000F7010008F7010008F7010008F701000810
:1000F000F7010008F7010008F7010008F701000800
:10010000F7010008F7010008F7010008F7010008EF
:10011000F701000809610008955F0008A15F000869
:10012000F7010008F7010008F7010008F7010008CF
:10013000DFF80CD000F088FD004800473982000845
:10014000B8B20020224B19680868B0E8F00F80F3BD
:100150000988BFF36F8F4FF0000080F311884EF0D5
:100160000D0E70470000000006480068006880F32C
:10017000088862B661B6BFF34F8FBFF36F8F00DFA1
:1001800000BF00BF08ED00E0EFF30980BFF36F8F01
:100190000F4B1A6820E9F00F106008B54FF05000BF
:1001A00080F31188BFF34F8FBFF36F8F09F0D2FA3E
:1001B0004FF0000080F31188BDE808401968086816
:1001C000B0E8F00F80F30988BFF36F8F704700BF6E
:1001D00058000020EFF30580704700000648804774
:1001E00006480047FEE7FEE7FEE7FEE7FEE7FEE71C
:1001F000FEE7FEE7FEE7FEE7795F00083101000851
:10020000202A04DB203A21FA02F00021704721FA6B
:1002100002F3D040C2F120029140084319467047D2
:1002200040EA01039B0703D009E008C9121F08C078
:10023000042AFAD203E011F8013B00F8013B521EF8
:10024000F9D27047D2B201E000F8012B491EFBD26F
:1002500070470022F6E710B513460A4604461946D1
:10026000FFF7F0FF204610BD421E12F8013F002BA1
:10027000FBD111F8013B02F8013B002BF9D170478B
:1002800010B5002200E0521C835C8C5CA34201D1BB
:10029000002BF8D1D8B2E1B2401A10BD034611F8D4
:1002A000012B00F8012B002AF9D1184670470000F5
:1002B0000FB400B58DB010A909900B9000914FF0CC
:1002C000FF300A9000200C900548069005480790E2
:1002D0006A4609A80F9900F01DFB0DB05DF814FBEC
:1002E000310900084F0900082DE9FF5FD2E901A795
:1002F0004FF00008916999461446DDF838B046463B
:1003000001988847054659EA0B0005D009E0A16924
:10031000761C019888470546216A284688470028A8
:10032000F5D1681C03D05FEACA7005D015E04FF024
:10033000FF3004B0BDE8F09F2068011D2160D0F8B7
:1003400000800AE05FEACA7001D108F8015BA16988
:10035000761C7F1E019888470546002F1ADD681C11
:1003600018D0B9F1000F0DD0E81705EBD06042119D
:1003700020F01F0059F822102A1A01209040014253
:10038000E0D107E0BBF1000FDCD1216A28468847A5
:100390000028D7D0E16901988847BBF1000F07D149
:1003A000002E05DD5FEACA7002D1002188F8001036
:1003B000A068B84203DDBBF1000F03D017B16FF0A6
:1003C0000100B6E73046B4E770B5064606F0DAF944
:1003D000046805460A220021304600F0C9FA2C6064
:1003E00070BDF0B480EA0102D40F4200B2EB410FBD
:1003F00002D20246084611464A0042D0C30DDDB281
:10040000C1F3C752AD1A202D35DAC1F3160141F4FC
:10041000000204B15242C5F1200602FA06F12A4157
:100420001044B3EBD05F23D0C4B1012DA0EBC35077
:1004300009DCF0BC4FF0004202EAC352DBB200F527
:10044000000000F0D6BA400000F1807000EBC3500D
:10045000A0F1807040EAD170490009E0490841EA02
:10046000C071A0EBC35000F50000400800EBC35082
:10047000F0BC00F0B5BA6142012202EB4101001B61
:10048000F6E7F0BC704781F00041AAE780F0004039
:10049000A7E780EA010210B502F00043400022D035
:1004A0004A001FD0010E01EB1261C0F35600C2F3E7
:1004B000560240F4000042F40002A0FB02200004B7
:1004C0007F39140400D0401C50EA124001D440008F
:1004D000491EC2B20C0604EBD010401C4008802A12
:1004E00002D003E0002010BD20F00100002900DA56
:1004F0000020184310BD30B480EA010202F000452C
:1005000030F0004221F0004013D090B1C30DD40D63
:10051000C2F31601C0F31600E41A41F4000140F4DE
:1005200000027D34914201D3641C00E04900002C9C
:1005300002DA30BC002070474FF4000000239142E3
:1005400001D3891A034340084FEA4101F7D151B161
:10055000914202D14FF0004105E002D24FF001017B
:1005600001E06FF0010103EBC450284430BC00F0FF
:1005700037BA2DE9FE4F804681EA0300C00F0C46D2
:10058000009021F0004123F00045B8EB0200A941A2
:1005900005D24046214690461C460B46024623F0B3
:1005A0000040104347D0270DC7F30A00C3F30A5198
:1005B0000290401A019040286BDAC3F3130040F414
:1005C000801B0098924620B10023D2EB030A63EB14
:1005D0000B0B01985946C0F14002504600F073F9E8
:1005E00006460D4650465946019A00F07BF910EB3D
:1005F00008006141002487EA115284EAE7731A4334
:1006000040D0009A62B3019A012A4FEA075215DCE2
:10061000001B61EB02014FF0004202EA0752CDE9F4
:100620000042001C41F5801132462B4600F01EFAB4
:1006300003B0BDE8F08F40462146F9E7001B61EBAF
:100640000201001C41F5801300185B412018A2F53F
:10065000001747EB030140EAD570B6196D4111E070
:100660006D084FEA360645EAC0754FEA0752001B8F
:1006700061EB0201001C41F5801149084FEA30008E
:100680000019514132462B4603B0BDE8F04F00F04F
:10069000DEB90098012240000023D0EB020263EB98
:1006A000E073009821464FEAE074B8EB000061EB7C
:1006B0000401E9E783F000435BE781F0004158E77C
:1006C0002DE9FE4F81EA030404F0004421F00041CB
:1006D00000944FF0000B23F0004350EA01045ED079
:1006E00052EA03045BD0C3F30A54C1F30A552C4405
:1006F000A4F2F3340194A0FB0254C1F3130141F4BA
:100700008011C3F3130343F4801301FB024400FB85
:10071000034E840A970A44EA815447EA8357A4FBAC
:10072000076802958D0A05FB07854FEA932C04FBA9
:100730000C542705029D4FEA065847EA1637B5EBD9
:1007400008056EEB070C870E920E47EA811742EA06
:100750008312A7FB0201B6EB0B0164EB00042B0D27
:1007600043EA0C335E1844EB1C50DA465146E7FB73
:100770000201C5F313044FEA0B3343EA14534FEA63
:100780000432019C43EA0603A4F10C040294009C89
:10079000CDE900B400F06AF903B0BDE8F08F0020A5
:1007A0000146F9E7C10F80EAE0700844CA079623C2
:1007B000002100F01EB996230022114600F019B95D
:1007C00020F00040C10DC0F3160040F400007F2966
:1007D00001DA00207047962903DCC1F19601C84078
:1007E000704796398840704700F0004230F0004072
:1007F0000AD0C10D01F56071C0F3160042EA015143
:10080000C2084007114370470020014670470000AE
:10081000002801DBC0F10040002901DBC1F10041EB
:1008200081427047002801DBC0F10040002901DB54
:10083000C1F100418842704730B50B4601460020A7
:100840002022012409E021FA02F59D4205D303FA92
:1008500002F5491B04FA02F52844151EA2F1010213
:10086000F1DC30BD2DE9F05F0546002092469B4645
:1008700088460646814640241BE0284641464746B6
:100880002246FFF7BDFC53465A46C01A914110D389
:1008900011461846224600F016F82D1A67EB01089B
:1008A0004F4622460120002100F00DF817EB000909
:1008B0004E41201EA4F10104DFDC484631462A46A1
:1008C0004346BDE8F09F202A04DB203A00FA02F1FB
:1008D000002070479140C2F1200320FA03F319432E
:1008E00090407047202A06DBCB17203A41FA02F0ED
:1008F00043EAE07306E041FA02F3D040C2F120027D
:10090000914008431946704702681144137801600A
:1009100018467047D16004495161044911620021B1
:100920001161114600F0B0B909090008750C000802
:10093000426842B1016811F8013B23B1521EC0E97F
:100940000012184670470121C160881E7047426836
:100950005AB1C368016843B983688B4205D0491E08
:10096000521CC0E90012002070474FF0FF30704762
:100970002DE9F04791460F4680460446002614F8BC
:10098000015B2DB100F072F90068405DC007F6D13F
:100990002B2D02D02D2D18D0641E4A4639462046F4
:1009A00000F008FB27B13968A14201D1C7F80080E7
:1009B00071054FF002040BD54042002803DD05F01D
:1009C000E1FE0460A007BDE8F08746F48066E4E736
:1009D0000028F8DA05F0D6FE04606FF00040F2E778
:1009E0000029A8BF7047401C490008BF20F0010043
:1009F000704710B4B0FA80FC00FA0CF050EA010421
:100A000004BF10BC704749B1CCF1200421FA04F4B2
:100A100011FA0CF118BF012121430843A3EB0C018B
:100A2000CB1D4FEA00614FEA102042BF002010BCEE
:100A3000704700EBC35010440029A4BF10BC70479E
:100A4000401C490008BF20F0010010BC704710B5E1
:100A5000141E73F1000408DA401C41F100019218E1
:100A60005B411A4301D120F0010010BD2DE9F04D8A
:100A700092469B4611B1B1FA81F202E0B0FA80F2DF
:100A800020329046FFF71FFF04460F4640EA0A0057
:100A900041EA0B0153465A46084313D0114653EA24
:100AA000010019D0C8F140025046FFF7A9FB0546E6
:100AB0000E46504659464246FFF705FF084305D00B
:100AC000012004E020463946BDE8F08D00200543B2
:100AD00046EAE0762C4337430A986305E40AA0EB24
:100AE00008000022FD0A44EA47540A3002D50020DB
:100AF0000146E9E7010510196941DDE908450019DA
:100B00006941BDE8F04DA2E72DE9F04D81EA03040B
:100B100004F0004B21F0004514464FF0000A23F08A
:100B2000004150EA050220D054EA01021DD0C5F36D
:100B30000A570246C5F31303C1F31300C1F30A5663
:100B400040F4801543F48013A7EB0608101BD6462B
:100B500008F2FD3873EB050002D308F1010801E04B
:100B600092185B41B8F1000F03DA00200146BDE89E
:100B7000F08D00204FF48011064684460EE0171BCE
:100B800073EB050705D3121B63EB050306434CEA21
:100B9000010C49084FEA300092185B4150EA010706
:100BA000EDD152EA030012D082EA040083EA050183
:100BB000084305D0101BAB4106D20122002306E0FA
:100BC00000224FF0004302E06FF0010253101AEBD5
:100BD00006004CEB085110EB0A0041EB0B01BDE89D
:100BE000F04DFFF734BFC1F30A52C1F3130140F2D5
:100BF000FF3341F480119A4202DA00200146704727
:100C000040F233439A42A2F2334202DC5242FFF7EF
:100C1000F7BAFFF758BE000030B5041E71F10004AA
:100C200004DB4FF00044404264EB0101141E73F1F9
:100C3000000405DB1C464FF00043524263EB040303
:100C4000994208BF904230BD064C074D06E0E0686F
:100C500040F0010394E8070098471034AC42F6D303
:100C6000FFF76AFAB0B20008D0B200080048704737
:100C70006CB2000810B50446FFF7F8FF0068005D8D
:100C800000F0010010BD00002DE9F34F8BB04FF0D4
:100C9000000801F10C000C464FF0010B46460DF127
:100CA000080A01906269012101989047051E2DD024
:100CB000252D2CD0216A8847C0B162690121019895
:100CC0009047216A88470028F7D1411E6269019840
:100CD000904700E0761CA1690B988847216A8847F5
:100CE0000028F7D1E1690B988847DBE7A1690B98E9
:100CF00088470746A84201D1761CD3E7E1690B98E3
:100D000088477F1C02D1B8F1000F6FD046E1002761
:100D100062693D463946019890472A2804D16269A4
:100D20000121019890470125DFF884926269012131
:100D300001989047A0F130010A290AD24F45E5DC1D
:100D400007EB870100EB4107303FDFD445F010058A
:100D5000ECE7E90601D46FF000476C280AD04C2874
:100D600014D0682815D06A280DD074281CD07A2891
:100D70001AD01DE062690121019890476C2802D0C9
:100D800045F0040514E045F002050DE045F02005AE
:100D90000AE06269012101989047682802D045F075
:100DA000080505E045F40065626901210198904756
:100DB000C4E9015765283DD019DC58287AD00CDCED
:100DC000452837D004DC252826D0412831D131E010
:100DD00046282FD047282CD12CE05B2877D06128DB
:100DE00028D063287CD0642823D15AE0D0E06F2833
:100DF00048D008DC66281DD067281BD0692821D080
:100E00006E2816D127E0702845D0732868D0752841
:100E100047D078280DD14DE0A1690B988847054649
:100E200025283FF469AFE1690B9888476D1C3FF4B2
:100E30006AAFB3E023466A466FF001000B99AFF347
:100E400000809EE045F040006060A80723464FF018
:100E5000000236D43EE0E8077FF447AF2068011D6A
:100E600021600068290501D506701BE7290701D517
:100E7000068017E7A90703D5F117C0E9006111E75C
:100E800006600FE745F040006060A80723464FF07A
:100E9000080216D41EE040F60E0125EA010060604B
:100EA00016E045F040006060A80723464FF00A02B4
:100EB00007D40FE045F040006060A80708D523463E
:100EC00010226FF001000B99AFF3008059E007E0AA
:100ED000234610226FF001000B99AFF3008050E021
:100EE0004FF000094F464B46632802D05B2806D0DE
:100EF00040E0E80601D40120A06001273AE06269E1
:100F00000121019890475E2805D14FF001096269DF
:100F1000494601989047216939B900210A4653464C
:100F200043F82120491C0829FADBB0B3216969B9CB
:100F3000C11700EBD16253110AEB830122F01F02AB
:100F4000821A01200B68904003430B606269012103
:100F5000019890475D28E8D1B9F1000F09D0002031
:100F6000514651F82020D24341F82020401C082847
:100F7000F7DB02AB224600976FF001000B99FFF7F9
:100F8000B3F900280CDA401C08D1BBF1000F05D0E2
:100F90004FF0FF300DB0BDE8F08FFFE74046F9E7B6
:100FA000E90701D108F1010806444FF0000B79E68A
:100FB000CCCCCC0C2DE9F05F82460078002715469A
:100FC0008B460AF10104B946302801D09DB113E0E7
:100FD00014F8010B0127782803D0582801D045B117
:100FE0000AE00DB1102D07D10027102514F8010BD0
:100FF00002E0082500E00A250026B0460EE005FBC9
:10100000080005FB06F1012701EB10461FFA80F8E6
:10101000B6F5803F00D3B94614F8010B294600F01D
:1010200018F80028EBDABBF1000F05D00FB1641EF1
:1010300000E05446CBF80040B9F1000F06D005F0AF
:10104000A1FB02210160C81EBDE8F09F48EA0640EE
:10105000FAE73A2800D2303820F02002412A01D3A2
:10106000A2F13700884201D34FF0FF30704770B5CE
:101070008C1810F8015B15F0070301D110F8013B43
:101080002A1106D110F8012B03E010F8016B01F8CA
:10109000016B5B1EF9D12B0705D40023521E0DD422
:1010A00001F8013BFAE710F8013BCB1A921C03E070
:1010B00013F8015B01F8015B521EF9D5A142D8D3A8
:1010C000002070BD14481549C26B4A6001F10C0242
:1010D000036C5360436C8B60816C91600F49826834
:1010E00028390A60C2684A60083102690A604269A8
:1010F0004A600831C26A0A60026B4A600831426B7A
:101100000A60826B4A604C39B0F850204A61B0F8EE
:10111000520008617047000000010020B801002063
:10112000008840BA7047000038B5164C050015D04D
:1011300001202070002005F0E5FA13492069002302
:1011400048434FF47A71B0FBF1F24FF0FF3000905A
:101150000421E06909F008FA002202E00020207072
:1011600001220A4C4FF40071204601F0A4F80DB1A1
:10117000012200E000222046BDE838404FF4807193
:1011800001F099B85C01002040420F00000C0140C2
:1011900010B50020FFF7C8FF02480349808AA1F874
:1011A000500010BD5C01002000010020F8B505F0E2
:1011B000B5F905461E4CA0F57F40FF3810D005F06C
:1011C000C3F91C4E20613DB10027012D15D0606987
:1011D000A84201D0656137602078054312D014E041
:1011E0000020FFF7A1FF4FF0FF30002300901A46C8
:1011F0000321E06909F0B8F9F8BD0120FFF794FF79
:10120000376002E00120FFF78FFF30686169B0FBB3
:10121000F1F201FB12010029EED10028ECD0207878
:101220000028E9D1BDE8F8400120FFF77DBF0000AC
:101230005C0100200C000020FEE7000070B5094DA5
:10124000FF22134605F5807606E000BF10F8014B3B
:1012500054402A5D5A40335D491E89B2F6D243EAB2
:10126000022070BDA4AF00082DE9F0410C460546F0
:10127000418800881746814202D10020BDE8F081F4
:10128000081AFFF78FFA0646D4E90010FFF7FBF8BB
:101290003146FFF730F9064638602888FFF78BFAA9
:1012A0003146FFF7F6F82168FFF7F0F87860012083
:1012B000E4E72DE9F0470E46DDE9088907461446C4
:1012C0001D4619463068FFF7DEF82146FFF713F98F
:1012D000FFF776FA388029467068FFF7D4F8214680
:1012E000FFF709F9FFF76CFA78804946B068FFF715
:1012F000CAF84146FFF7FFF8FFF762FAB880BDE889
:10130000F08700002DE9FC47384C8A462246A2F1BE
:1013100010058146231D291D284605F02BF905F0EF
:1013200079F8A4F14407012820D002285BD1314983
:101330002F48C5E90001C4E90001102005F0B6F905
:10134000D4E90023D5E9000105F058F9D7E91101E6
:10135000CDE90001D7E90D2304F11801A1F1340012
:10136000FFF7A7FFBDE8FC4702F098BC22481F4EDC
:10137000808B1C3E50B106F1340801280ED00228A3
:1013800026D0BDE8FC47052005F090B917497888BC
:10139000308018314A46A1F134000DE005F092F892
:1013A000C8F8040011497888708018314A46A1F1C4
:1013B0003400FFF759FF11E0FFF756FF0F2005F04B
:1013C00075F9D4E90023D5E9000105F017F9C9E75B
:1013D00005F08EF8C8F808007888B080524608F109
:1013E0000401B01CE8E7BDE8FC870000A001002074
:1013F000CDCC4C3D000048C3000100202DE9FC4746
:10140000384C8A462246A2F110058146231D291D2B
:10141000284605F0D1F805F013F8A4F14C0701288F
:1014200020D002285BD131492F48C5E90001C4E929
:101430000001102005F050F9D4E90023D5E900019E
:1014400005F0FAF8D7E91301CDE90001D7E90F2338
:1014500004F11C01A1F13A00FFF72BFFBDE8FC47A6
:1014600002F01CBC224A1F48138C1E3853B100F1F5
:101470003A01012B0ED0022B29D0BDE8FC470520F4
:1014800005F02AB9B988018016494A461C31A1F1F4
:101490003A0010E0126C0E464A60B988418011494A
:1014A00080461C314A46A1F13A00FFF7DDFE524664
:1014B000311D08F10200FFF7D7FE0F2005F00CF9EF
:1014C000D4E90023D5E9000105F0B6F8C6E7926C2F
:1014D0008A60BA888280801C5246091DEBE7BDE80D
:1014E000FC870000A8010020F5BD063A000040C1BD
:1014F00000010020704772B6FEE70022AFF30080C3
:1015000030B50E4B054601205C7A012C15D8587A6F
:1015100000241C54587A03EB800045605D7A03F187
:1015200008002A54587A421C5A72303008703A2007
:1015300048702F208870CC70002030BDC00500207E
:1015400006490020C8610648016941F004010161B3
:10155000016941F0400101617047000088050020E9
:1015600000200240064A0021D16106490A6942F082
:1015700002020A614861086940F040000861704752
:101580008805002000200240044B0022DA61044A52
:10159000136943F00103136101807047880500203F
:1015A0000020024014480022C168CB06134904D52C
:1015B000CA6942F00202CA611022C3685B0705D5FE
:1015C000CB6943F00103CB6142F00402C369DB073E
:1015D00007D0CB6943F00403CB61C16921F001015D
:1015E000C161A2F58071013901D0C2607047C16943
:1015F00021F00101C16170470020024088050020F0
:1016000070B5054600F05CFE0646114C09E0681C0A
:1016100007D025B100F054FE801BA84201D9032059
:1016200070BDE068C007F2D1E068800601D52020D7
:10163000E060E068C00605D4E069C00702D1E06858
:10164000400703D5FFF7AEFF012070BD002070BD3D
:101650000020024090F82020012A07D0022A05D05D
:10166000416A41F48021416201207047006842696B
:101670000A43426100207047F0B590F8205004689A
:10168000A468012D05D0022D03D0416A41F48021C8
:101690004DE014F0406F01D1E50045D5C4F301647D
:1016A0000125A5401D608D684FF4C0739DB1CE68C3
:1016B00035434E6845EAC605066803EB0417F55145
:1016C0004FF4C275076805EB04150E697E51097D5C
:1016D000012905D009E00E88CD6845EA4655EBE7BB
:1016E00001684E5946F480764E511179D2F8055072
:1016F0004FF4C67641EA0521056806EB0416A951A8
:101700001178D2F801204FF4C47541EA0221026831
:1017100005EB04155151006803EB0411425842F0E7
:10172000010242500020F0BD416A41F400114162C3
:101730000120F0BD10B590F820300268012B07D0D1
:10174000022B05D0416A41F480214162012010BD85
:10175000D2F8000240F00100C2F80002087D00F05B
:101760001F0301209840D2F81C328343C2F81C3278
:10177000CB69B3B9D2F80C328343C2F80C328C89EE
:101780004B6864F31F434C6902EBC404C4F8403255
:101790000C890B6864F31F434C6902EBC404C4F862
:1017A0004432CB69012B16D1D2F80C320343C2F874
:1017B0000C320C884B6864F31F434C6902EBC40481
:1017C000C4F840320C89CB6864F31F434C6902EBC8
:1017D000C404C4F844328B69002BD2F804320FD011
:1017E00053EA0003C2F804320B69002BD2F814321A
:1017F00008D00343C2F81432096A012904D008E072
:101800008343EFE78343F5E7D2F81C120143C2F8A4
:101810001C12D2F8000220F00100C2F800020020E1
:1018200010BD704770B590F82040012C05D0022CF7
:1018300003D0416A41F4802128E0046809B3246997
:10184000A40720D04FF4D874056804EB01142D5977
:1018500015F00405956005682D591AD0ED085560FE
:1018600005682C5904F00204D4604FF4DA7405685A
:1018700004EB01142E5906F00F06082E0CD3082590
:101880000DE0E468DCE7416A41F4001141620120A7
:1018900070BD6D0D1560E3E72D5905F00F0515615D
:1018A00005682D59C5F30725956105682C59240C49
:1018B00054614FF4DC72046802EB0112A4581C70EE
:1018C0000468A458240A5C700468A458240C9C7012
:1018D0000468A258120EDA704FF4DE72046802EB4C
:1018E0000112A4581C710468A458240A5C7104688D
:1018F000A458240C9C710468A258120EDA71006876
:1019000029B1016941F020010161002070BDC16869
:1019100041F02001C160F8E70246002092F8201053
:10192000012901D002290CD111688A68520100D521
:1019300001208A68120100D5401C8968C90000D5C1
:10194000401C70472DE9F05F054600680024466999
:10195000D0F804908768D0F80CB0D0F810A0D0F878
:101960001880F10748D0F90714D001218160B80729
:1019700003D5284600F02BFA0CE0780702D54FF487
:10198000006407E0380702D54FF4805402E028468F
:1019900000F01CFAF80516D529684FF480708860AD
:1019A000B80503D5284600F014FA0CE0780502D5F6
:1019B00044F4005407E0380502D544F4804402E0C2
:1019C000284600F005FAF80316D529684FF4803050
:1019D0008860B80303D5284600F0FDF90CE07803D1
:1019E00002D544F4004407E0380302D544F48034BF
:1019F00002E0284600F0EEF9300707D55FEACB6039
:101A000004D52968102044F40074C86070074FF0B2
:101A1000080707D55FEA0B7004D52868C760284619
:101A200000F05AF9B00706D52868C068800702D0D0
:101A3000284600F053F9700607D55FEACA6004D55E
:101A40002968102044F480640861B00607D55FEA75
:101A50000A7004D528680761284600F087F9F00667
:101A600006D528680069800702D0284600F07FF973
:101A7000B00308D55FEAC96005D529681020486021
:101A8000284600F075F9F00307D55FEA097004D520
:101A900028684760284600F09FF9300446D55FEA81
:101AA000497040D5F00504D55FEAC87001D044F014
:101AB0000104B00504D55FEA887001D544F0020442
:101AC000700504D55FEA487001D544F00404300580
:101AD00029D518F0700F26D008F07000402815D0D6
:101AE00006DC102809D020280AD0302816D10AE0B8
:101AF00050280ED0602811D10EE044F008040DE00B
:101B000044F010040AE044F0200407E044F04004EC
:101B100004E044F0800401E044F4807428688169A2
:101B200021F070018161296804204860002C05D0F3
:101B3000686A204368622846FFF773FEBDE8F09F9D
:101B400070B5040003D094F8200010B104E0012027
:101B500070BD204600F082F82068016841F0010164
:101B6000016000F0ADFB0546052604E000F0A8FB8F
:101B7000401B0A2811D820684068C007F6D02068AA
:101B8000016821F00201016000F09AFB05460BE0BC
:101B900000F096FB401B0A2806D9606A40F400302A
:101BA000606284F82060D2E7206840688007EFD444
:101BB000207E0128206801683DD021F0800101606D
:101BC000607E01282068016838D021F04001016062
:101BD000A07E01282068016833D021F02001016037
:101BE000E07E0128206801682ED041F010010160DC
:101BF000207F01282068016829D021F008010160B8
:101C0000607F01282068016824D021F00401016070
:101C1000D4E902010843D4E904121143084361687E
:101C2000491E08432168C86100206062012084F8D1
:101C30002000002070BD41F08001C0E741F040016C
:101C4000C5E741F02001CAE721F01001CFE741F0DC
:101C50000801D4E741F00401D9E7000010B586B0CF
:101C60000021009101910291039100681749884277
:101C70002AD11748C16941F00071C161C16901F001
:101C800000710491816941F0040181618069114C06
:101C900000F0040004904FF4006000906946204674
:101CA00000F008FAA0140090022001900320039095
:101CB0006946204600F0FEF900220721142000F0BA
:101CC00043FD142000F032FD06B010BD006400405A
:101CD00000100240000801407047000000B589B0C4
:101CE0006B4602AA0021FFF79DFD002837D103981B
:101CF000010E1C4801700399090C41700399090AEF
:101D000081700399C1700179069A62F3030101F0B1
:101D10000F020171082A03D921F00F010831017166
:101D20009DF8001041719DF8011081719DF802101D
:101D3000C1719DF8031001729DF8041041729DF865
:101D4000051081729DF80610C1729DF8071001738D
:101D5000054800231A460349406807F047FF09B0C9
:101D600000BD0000E1800020E000002070477047C7
:101D70007047000070B5044690F82000012804D098
:101D8000606A40F40020606218E0022084F82000BD
:101D90002068016821F00101016000F091FA054618
:101DA0000EE000BF00F08CFA401B0A2808D9606AD8
:101DB00040F400306062052084F82000012070BDEE
:101DC00020684068C007EDD1606270BD7047704701
:101DD0007047704770477047704710B590F82110F2
:101DE0000022022905D00421816380F820200120EF
:101DF00010BD01680B6823F00E030B6001680B68CF
:101E000023F001030B6090F84030C46B012101FA0C
:101E100003F3636080F8211080F82020104610BD85
:101E20002DE9F05F90F821100024022903D004214D
:101E30008163012485E001680A6822F00E020A60CD
:101E400001680A6822F001020A603F4E3E4FB21557
:101E5000DFF8F4C0DFF8F090DFF8ECA0DFF8E8B0CE
:101E6000DFF8E4E00168783F13011502ACF1640C7F
:101E7000A9F15009AAF13C0AABF1280BAEF1140EFE
:101E80004FF48018B14227D9B9420ED0614512D023
:101E900049451DD0514518D0594518D0714501D13B
:101EA000424615E0294EB14201D1012210E0274EF1
:101EB0001436B14201D110220AE0244E2836B14234
:101EC00006D0224A3C32914201D11A4600E02A460D
:101ED0001E49091F0A602BE0B94213D0614517D093
:101EE000494522D051451DD059451DD0714501D1DC
:101EF00042461AE0B14202D14FF0807215E0134E13
:101F0000B14201D1012210E0104E1436B14201D18C
:101F100010220AE00D4E2836B14206D00B4A3C3260
:101F2000914201D11A4600E02A46074980394A60A9
:101F3000012180F82110002180F82010416B01B1AF
:101F400088472046BDE8F09F800002400804024018
:101F50002DE9F047054626480F460126017E012956
:101F60000FD00121814601762868DFF888804CF285
:101F70005034022808D0A2462046FFF741FBA8B102
:101F800031E00220BDE8F0872046FFF739FB08BBAF
:101F90000120FFF7D5FA2046FFF732FBD8F81010E2
:101FA000064621F00401C8F810101CE04FF0FF3085
:101FB0003860AC6811E02046FFF7D4FA5046FFF7CE
:101FC0001FFBD8F81010060021F00201C8F810100D
:101FD00001D03C6007E004F50064D5E9020100EBA4
:101FE000C120A042E7D8002189F818103046C9E77F
:101FF00088050020002002400348016941F080016B
:102000000161002070470000002002402DE9F05FD0
:1020100007461C4888460024017E15461E460129B5
:1020200009D00121814601764CF2503A5046FFF723
:10203000E7FA18B122E00220BDE8F09F012F02D09C
:10204000022F00D00427D346DFF83CA02201284607
:102050003146FEF7D5F881B208EB4400FFF794FA59
:102060005846FFF7CDFADAF8102022F00102CAF83C
:10207000102018B9641CE4B2BC42E7D3002289F8EE
:102080001820D9E7880500200020024006490020DA
:102090000A69120607D5054A4A60054A4A60096975
:1020A000090600D501207047002002402301674542
:1020B000AB89EFCD2DE9F84FDFF8C8910024A9F1E5
:1020C000040B23460F2709F1040AABF1040ED1E0FB
:1020D0000125A54006EA0502AA4276D1DFF8A8C18B
:1020E0004E68A6EB0C0866452BD00DDC032E34D0D1
:1020F00005DC36B3012E19D0022E2FD11BE0112E94
:1021000016D0122E2AD119E0B8F5881F19D006DC96
:10211000B8F5803F15D0B8F5801F1FD111E0B8F594
:10212000001F0ED0B8F5041F18D10AE0CB6815E0E7
:10213000CB681B1D12E0CB6808330FE0CB680C3373
:102140000CE08B682BB1012B4FF0080303D04561E5
:1021500004E0042302E0056100E00023FF2A01D827
:10216000064601E000F104064FEA840501D9A5F115
:102170002005D6F8008007FA05FC28EA0C0803FAC7
:1021800005F548EA0508C6F800804D68ED0070D5F1
:102190003E4DAE6946F00106AE61AD6924F003061E
:1021A00005F0010500953A4D06EB050CDCF80850EA
:1021B000A607360F07FA06F825EA0805DFF8D480E7
:1021C000404503D14FF0000825E052E0DFF8C88019
:1021D000404502D14FF001081DE0DFF8C0804045C6
:1021E00002D14FF0020816E0DFF8B480404502D17A
:1021F0004FF003080FE0DFF8AC80404502D14FF00C
:10220000040808E0DFF8A080404502D14FF005083F
:1022100001E04FF0060808FA06F848EA0508CCF88D
:1022200008804D68D9F80060ED024D4601D516438F
:1022300000E096432E604D68DAF80060AD02554626
:1022400001D5164300E096432E604D68DBF8006030
:10225000AD035D4601D5164300E096432E604D6800
:10226000DEF80060ED03754601D5164300E09643A5
:102270002E60641C0A681646E2407FF429AFBDE870
:10228000F88F000008040140000011100010024007
:102290000000014000080140000C01400010014016
:1022A0000014014000180140001C014080680840F3
:1022B00000D0012070470AB1016170470904FBE7B3
:1022C00001488068704700004000002070B504009D
:1022D00025D094F83D00002520B984F83C502046D4
:1022E00000F04EF9242084F83D002068016821F0B8
:1022F000010101602068016841F40041016020682B
:10230000016821F40041016000F006FB4D4A61685C
:10231000914201D84C4900E04C49884201D2012049
:1023200070BD4B492368B0FBF1F15E6826F03F06B3
:102330000E435E606368934206D94FF49673594327
:102340004FF47A73B1FBF3F12368491C1E6A26F03F
:102350003F06314319626168914210D84900401E1E
:10236000B0FBF1F2521CC2F30B02042A01D204208A
:1023700022E0B0FBF1F0401CC0F30B001CE0A268AF
:10238000F2B301EBC10303EB0116431EB3FBF6F3FB
:102390005B1C43F480431B0549D092B301EBC1029F
:1023A00002EB0111401EB0FBF1F0401CC0F30B002A
:1023B00040F4804040F400402168CA694CF6FF7345
:1023C0009A431043C861D4E90710014320680268AA
:1023D00022F0C00211430160D4E9030101432068E7
:1023E000826848F2FF339A4311438160D4E90501C2
:1023F00008432168CA6822F0FF021043C86001E068
:102400000EE016E02068016841F0010101602564DA
:10241000202084F83D00256384F83E50002070BDE4
:1024200001EB4106431EB3FBF6F35B1CB3E701204F
:10243000C2E701EB4101401EB0FBF1F0401CC0F3CC
:102440000B00B7E7A086010080841E0000093D0054
:1024500040420F002DE9F84F1F4690468A46044639
:10246000DDF82890FFF72CFF054694F83D00202862
:102470007FD11923012240492046009501F03CFB01
:10248000002876D194F83C00012872D0012084F80D
:102490003C0020680168C90703D1016841F00101CF
:1024A00001602068016821F400610160212084F846
:1024B0003D00102084F83E0000262664C4F82480E5
:1024C0006785608D20852D48E0622B464A4651463F
:1024D000204601F097FA90B9206841698069009020
:1024E00036E02A464946204601F0ACFB50B1206C4C
:1024F000042804D12068016841F4007101600120C2
:10250000BDE8F88F606A216800780861606A401C45
:102510006062618D491E6185218D491E89B22185C8
:1025200022685369DB435B070BD451B1007810611B
:10253000606A401C6062608D401E6085208D401E78
:1025400020852A464946204601F0AAFA0028CED125
:10255000208D0028C5D154F83D0B016841F400716D
:102560000160202004F81E09E67766770020C7E79F
:10257000FFE70220C4E70000020010000000FFFF98
:1025800030B585B0002100910191029103911E4D5B
:1025900003681E4C122103221D48AB4216D1A369C9
:1025A00043F00803A361A369039203F008030493B3
:1025B000C023CDE900316946FFF77CFDE06940F4B6
:1025C0000010E061E06900F4001019E0114DAB4229
:1025D00017D1A36943F00803A361A369039203F031
:1025E000080304934FF44063CDE900316946FFF7D7
:1025F00061FDE06940F48000E061E06900F4800082
:10260000049005B030BD00000054004000100240AE
:10261000000C0140005800400248816802781144D3
:102620008160704740000020074810B5016841F004
:1026300010010160032000F0A7F80F2000F006F859
:1026400000F050F8002010BD0020024030B50546D3
:102650001F4887B0C16941F01001C161C06906A976
:1026600000F01000009001A800F036F90498B0B115
:1026700000F052F940001749174AB0FBF1F1174832
:10268000491E0260416040F2E7320021C0E90321A7
:102690008160816100F004FD040003D015E000F0CA
:1026A0003BF9E8E70D4800F06DFD04000DD1362040
:1026B00000F03CF8102D07D200222946362000F009
:1026C00043F80748056000E0012407B0204630BD0C
:1026D0000010024040420F00001000403C05002066
:1026E000440000200F4808B5816941F00101816173
:1026F000816901F001010091C16941F08051C1611E
:10270000C069002200F0805000900F21901E00F060
:102710001BF80548416821F0E06141F0007141601B
:1027200008BD00000010024000000140002809DB45
:1027300000F01F02012191404009800000F1E020DB
:10274000C0F8001170470000F0B40E4B1B680C4637
:10275000C3F30223C3F10705042D00D90425191D75
:10276000072901D2002300E0DB1E012606FA05F14D
:10277000491E214099409E40761E16403143F0BCD0
:1027800003F0F0BF0CED00E0064900F00702086816
:102790004FF6FF03184040EA0220034A1043086046
:1027A000704700000CED00E00000FA052DE9F0474D
:1027B0000F46050061D0434E306800F00700B84274
:1027C00009D2306820F0070038433060306800F0EC
:1027D0000700B84251D128683B4C810712D5400709
:1027E00003D5606840F4E06060602878000703D596
:1027F000606840F4605060606068A96820F0F00094
:10280000084360602878C00728D06868012810D085
:102810002168022810D0890700292EDA616821F08A
:10282000030101436160FFF74BFD804641F28839A7
:102830000DE021688903EFE78901EDE7FFF740FD2F
:10284000A0EB0801494502D90320BDE8F087606884
:10285000696800F00C00B0EB810FEFD1306800F038
:102860000700B8420BD9306820F0070038433060C9
:10287000306800F00700B84201D00120E5E7287871
:10288000400705D56068E96820F4E06008436060AF
:102890002878000706D56068296920F4605040EA6E
:1028A000C100606000F058F86168084AC1F3031184
:1028B000515CC8400649086006480068FFF7C6FE3C
:1028C0000020C2E7002002400010024096A6000847
:1028D0004C000020440000200F2202600C4A536884
:1028E00003F003034360536803F0F003836053680D
:1028F00003F4E063C36052684FF4E06303EAD2027A
:1029000002610448006800F007000860704700009A
:102910000010024000200240044805490068496850
:10292000044AC1F30221515CC84070474C000020AA
:1029300000100240A6A6000804480549006849683E
:10294000044AC1F3C221515CC84070474C000020CA
:1029500000100240A6A600080E4A51680E4801F079
:102960000C03042B11D0082B0FD10C48C1F3834367
:10297000C903C05C0AD55168084AC1F34041921EA0
:10298000515C054A5043B0FBF1F07047044948439D
:10299000704700000010024000127A0086A600086E
:1029A00000093D002DE9F84F040070D02078C04D9B
:1029B000C00749D06868C0F38100012807D0686863
:1029C000C0F38100022809D16868C00306D52868D1
:1029D000800339D560680028E7D035E06068B0F53D
:1029E000803F0BD010B1B0F5A02F11D0286820F493
:1029F00080302860286820F4802002E0286840F4B5
:102A000080302860606890B1FFF75AFC06460AE003
:102A1000286840F480202860F0E700BFFFF750FCF2
:102A2000801B642873D828688003F7D50CE0FFF773
:102A300047FC064605E000BFFFF742FC801B642808
:102A4000F0D828688003F7D420789A4E80074FF09A
:102A500001094FF0000839D5686810F00C0F07D055
:102A60006868C0F38100022809D16868C00306D4F1
:102A70002868800714D52069012808D110E0206952
:102A8000B0B1C6F80090FFF71BFC074605E00AE16D
:102A9000FFF716FCC01B0228C4D828688007F7D5AA
:102AA0002868616920F0F80040EAC10028600DE064
:102AB000C6F80080FFF704FC074604E0FFF700FCBF
:102AC000C01B022823D828688007F7D42078000785
:102AD0002CD57948A169D9B1C0F80090FFF7F0FB77
:102AE000074604E0FFF7ECFBC01B02280FD8686A1A
:102AF0008007F7D571484FF4FA510068B0FBF1F048
:102B0000009000BF0098411E0091FAD20EE080E0D4
:102B1000C0F80080FFF7D4FB074604E0FFF7D0FBC6
:102B2000C01B022875D8686A8007F7D42078400750
:102B300060D5E8690027C00008D4E86940F08050FB
:102B4000E861E869012700F0805000905C48016866
:102B5000C90513D40168834641F480710160FFF711
:102B6000AFFB824606E000BFFFF7AAFBA0EB0A001E
:102B700064284ED8DBF80000C005F5D5E0680128D0
:102B80000AD008B1052813D0286A20F00100286275
:102B9000286A20F0040002E0286A40F00100286260
:102BA000E06841F2883B98B1FFF78AFB82460BE070
:102BB000286A40F004002862EEE700BFFFF780FBC0
:102BC000A0EB0A0159455AD8286A8007F6D50CE0CF
:102BD000FFF776FB824605E0FFF772FBA0EB0A01E8
:102BE00059454CD8286A8007F6D41FB1E86920F00F
:102BF0008050E861E06988B36968C1F38101022906
:102C000044D00228C6F8608004D0FFF759FB044680
:102C100038E034E0FFF754FB074604E0FFF750FBD1
:102C2000C01B02282BD828688001F7D4206AB0F591
:102C3000803F05D16868A16820F4003008436860CF
:102C4000D4E908010843696821F4741108436860F5
:102C5000C6F86090FFF734FB044606E025E000BFAD
:102C6000FFF72EFB001B022809D828688001F7D542
:102C70001BE000BFFFF724FB001B022802D9032042
:102C8000BDE8F88F28688001F4D40EE00128F7D061
:102C90006868226A00F48031914204D1616A00F4CC
:102CA0007010884201D00120EAE70020E8E7000028
:102CB0000010024000004242800442424C000020CA
:102CC0000070004070B5040009D0606A002540B172
:102CD00025616561A56294F8510040B10CE00120C6
:102CE00070BD6068B0F5827FF4D0E561F2E784F8EA
:102CF0005050204600F040F8022084F8510020682F
:102D0000016821F040010160A088218900F48270EF
:102D100001F404410843A18901F400610843217CC6
:102D200001F002010843217D01F001010843218BDC
:102D300001F400710843217F01F03801084394F841
:102D4000201001F080010843218D01F40051084357
:102D500021680860A069042101EA104021684860E8
:102D60002068C16921F40061C1616565012084F8B2
:102D70005100002070BD000030B585B000240094E3
:102D8000019402940394254D0368254802210322EF
:102D9000AB421AD1836943F480538361836903F49E
:102DA00080530493836943F00403836180691D4D5C
:102DB00000F004000490A020CDE9000103926946D0
:102DC0002846FFF777F940201EE0174DAB4222D18D
:102DD000C36943F48043C361C36903F4804304932C
:102DE000836943F0080383618069104D00F0080097
:102DF00004904FF42040CDE9000103926946284633
:102E0000FFF758F94FF48040CDE9000469462846A1
:102E10000294FFF74FF905B030BD000000300140CB
:102E2000001002400008014000380040000C014042
:102E30002DE9FF4F81B01D46934604464FF001092E
:102E40000E9EFFF73DFA074694F85100616801288D
:102E500006D0B1F5827F3CD1A168C9BB042838D126
:102E60000298002871D0BBF1000FFBD0002DF9D0E3
:102E700094F8500001282CD04FF0010A84F850A09B
:102E800094F85100042802D0052084F851004FF036
:102E90000008C4F85480C4F838B0E587A5870299C3
:102EA0002163E586A586C4F84080C4F84480206884
:102EB0000168490603D4016841F040010160E068FF
:102EC000B0F5006F606808D0F0B3012D49D081E003
:102ED000FFE7022005B0BDE8F08F08B1012D39D120
:102EE000206B21680088C860206B801C2063E08E06
:102EF000401EE0862EE02068816889070FD5E18EAC
:102F000069B1B9F1010F0AD1216B0988C160206B49
:102F1000801C2063E08E401EE0864FF00009206890
:102F20008168C9070CD0E18F51B1C068A16B0880DE
:102F3000A06B801CA063E08F401EE0874FF001096A
:102F4000FFF7BEF9C01B01E00BE067E0B04201D320
:102F5000701C50D1E08E0028CDD1E08F0028CAD15E
:102F60003EE0206B216800780873206B401C2063D2
:102F7000E08E401EE0862DE02068816889070FD52D
:102F8000E18E69B1B9F1010F0AD1216B09780173A2
:102F9000206B401C2063E08E401EE0864FF000094D
:102FA00020688168C9070CD0E18F51B1C068A16B5E
:102FB0000870A06B401CA063E08F401EE0874FF0BC
:102FC0000109FFF77DF9C01BB04202D3701C01D08C
:102FD00011E086B1E08E0028CED1E08F0028CBD161
:102FE0003A463146204602F0CFFE50B120206065BF
:102FF00084F8508012E084F851A084F850800320B7
:1030000068E7A06818B92068C1688068009084F8F3
:1030100051A084F85080606D0028F1D0012059E75C
:103020007047704770B590F83C20012A2CD00124DD
:1030300080F83C40022280F83D2003685A689D6871
:1030400022F070060A6832435A60104B02689A42B6
:103050000ED00F4B9A420BD0B2F1804F08D00D4BDF
:103060009A4205D00C4B9A4202D00C4B9A4204D1A2
:10307000496825F080031943916080F83D400021A4
:1030800080F83C10084670BD022070BD002C014045
:10309000003401400004004000080040000C0040E3
:1030A00010B5040003D094F83D0010B107E00120F2
:1030B00010BD002084F83C00204600F01FF80220DC
:1030C00084F83D00211D206802F070FF012084F883
:1030D000460084F83E0084F83F0084F8400084F8FD
:1030E000410084F8420084F8430084F8440084F8E6
:1030F000450084F83D00002010BD000008B50168BF
:103100001D48B1F1804F11D01C4A91421DD1C169B7
:1031100041F00201C161C069002200F0020000908C
:1031200006211D20FFF710FB1D201FE0C16941F0A3
:103130000101C161C069002200F001000090062178
:103140001C20FFF701FB1C2010E00D4A914211D119
:10315000C16941F02001C161C069002200F0200076
:10316000009005213720FFF7EFFA3720BDE808402F
:10317000FFF7DCBA08BD0000001002400004004068
:103180000014004090F83D10012901D00120704743
:10319000022180F83D100168CA6842F00102CA604D
:1031A00000680E4988420ED00D4988420BD0B0F11C
:1031B000804F08D00B49884205D00B49884202D085
:1031C0000A49884204D1816801F00701062903D029
:1031D000016841F00101016000207047002C0140AE
:1031E000003401400004004000080040000C004092
:1031F0000168CA6822F00102CA6001680A6A41F2E5
:1032000011131A4207D10A6A9B101A4203D10A68A5
:1032100022F001020A60012180F83D100020704771
:1032200070B5044690F83C000025012817D001260F
:1032300084F83C60022084F83D002068826822F017
:10324000770222F47F4282600868502838D00DDC73
:1032500020284FD005DC90B3102811D14AE002207D
:1032600070BD302846D040280AD13BE060282FD0DE
:1032700070280DD0B0F5805F03D0B0F5005F12D09C
:10328000012584F83D60002084F83C00284670BD8C
:10329000CB68D1E90121206802F0D6FE2068816860
:1032A00041F0770109E0CB68D1E90121206802F003
:1032B000CBFE2068816841F480418160E1E719E03C
:1032C000CA684968206802F0D1FE5021206806E0F3
:1032D000CA684968206802F0DAFE6021206802F0BE
:1032E000BDFECEE7CA684968206802F0BFFE4021F3
:1032F0002068F4E7226801461046F0E770472DE9A0
:10330000F04104460068C66805694FF00007A90748
:1033100013D5B10711D5F91E01610120207720686E
:1033200080698007204602D0FFF7E8FF04E000F044
:103330007EF8204600F07CF82777680716D57007DE
:1033400014D521686FF004000861022020772068FE
:10335000806910F4407F204602D0FFF7CFFF04E0E1
:1033600000F065F8204600F063F82777280715D5A8
:10337000300713D521686FF008000861042020771A
:103380002068C0698007204602D0FFF7B7FF04E03D
:1033900000F04DF8204600F04BF82777E80616D5E8
:1033A000F00614D521686FF010000861082020771E
:1033B0002068C06910F4407F204602D0FFF79EFFCE
:1033C00004E000F034F8204600F032F82777E807F0
:1033D00008D0F00706D021686FF001000861204690
:1033E00000F028F8280608D5300606D521686FF0C9
:1033F000800008612046FFF713FE680608D57006B6
:1034000006D521686FF040000861204600F062F8A0
:10341000A8060AD5B00608D521686FF0200008611B
:103420002046BDE8F041FFF7FCBDBDE8F0817047E4
:103430007047000010B5044600681E49884201D15B
:10344000FFF7EAF81C4920680968884217D11B4930
:1034500000220868401C08600A380A2801D348681E
:1034600003E00A604868401C48600A380A2806D20F
:103470004A608868401C8860C868401CC860206832
:10348000B0F1804F07D10E480068002811D0804766
:103490000C48FFF7ADFE0C492068884209D10B4863
:1034A0000068002805D08047BDE810400848FFF7B5
:1034B0009FBE10BD001000401C0400200000002032
:1034C000F00000208C03002000040040F4010020E4
:1034D000D40300207047704770470000F8B50168BA
:1034E00004460868CA684B6910F00F0F4FF00005DA
:1034F00059D003F0010602F49077374365D0C10735
:1035000005D0D10503D5616C41F00101616441072B
:1035100005D5D90703D0616C41F0020161648107D0
:1035200005D5D90703D0616C41F00401616401073E
:1035300007D502F02001314303D0616C41F008014E
:103540006164616C00293AD0800604D5900602D5EA
:10355000204602F00EFE20684069616CC0F38010C6
:10356000090700D460B3204602F0DCFD2068406902
:10357000400621D52068143050E8001F21F040019A
:1035800040E80012002AF5D1E06BA8B16D49416313
:10359000E06BFEF745FC002811D0E06B416B01B0F9
:1035A000BDE8F040084783060FD593060DD52046A9
:1035B000BDE8F84002F0DDBD2046FFF78DFFF8BD05
:1035C0002046FFF789FF6564F8BD266B2023012E96
:1035D0007CD1C6067AD5D60678D5086848680090AA
:1035E00048694FF00206400640D5E16B0868406824
:1035F0000004000CE8D0A28D8242E5D9E0858869FC
:1036000020282DD020680C3050E8001F21F4807154
:1036100040E80012002AF5D12068143050E8001F5D
:1036200021F0010140E80012002AF5D12068143091
:1036300050E8001F21F0400140E80012002AF5D1B7
:1036400084F84230256320680C3050E8001F21F0D8
:10365000100140E80012002AF5D1E06BFEF7BDFB37
:103660006663A08DE18D401A81B22AE0A08DE18DC4
:10367000401A81B2E08D0028A6D00029A4D022688B
:103680000C3252E8000F20F4907042E80007002F3F
:10369000F5D12068143050E8002F22F0010240E8F4
:1036A0000027002FF5D184F84230256320680C30C4
:1036B00050E8002F22F0100240E80023002BF5D143
:1036C00066632046FFF707FFF8BDFFE705062BD529
:1036D000150629D594F841002128F5D1A068B0F548
:1036E000805F01D12069B0B1206A411C216221684C
:1036F00000784860E08C401E0004000CE084E3D1B8
:103700002068C16821F08001C1602068C16841F073
:103710004001C160D8E7206A0088C0F30800486013
:10372000206A801C2062E5E74006CDD55006CBD547
:10373000CA68204622F04002CA6084F8413000F096
:1037400023F9C1E71561000870B5040004D094F8AE
:103750004100002510B106E0012070BD84F8405002
:10376000204600F023F8242084F841002068C16836
:1037700021F40051C160204602F05CFD206801691F
:1037800021F4904101612068416921F02A014161E1
:103790002068C16841F40051C1606564202084F84C
:1037A000410084F842006563002070BDF0B585B02B
:1037B000002400940194029403944449424F066803
:1037C0000D15022203234248BE4220D1CE6946F4A1
:1037D0000026CE61CE6906F4002604968E6946F076
:1037E00010068E61896901F01001CDE90331CDE940
:1037F000005269460546FEF75DFCF814CDE9000469
:10380000694628460294FEF755FC05B0F0BD314FDD
:10381000BE422DD1CD6945F48015CD61CD6905F449
:10382000801504958D6945F010058D618D6905F051
:10383000100504958D6945F020058D618969039314
:1038400001F020010491B114CDE900126946FEF7A0
:1038500031FC0420CDE9000469461F480294FEF7BC
:1038600029FC002205213520FEF76EFF352028E0D7
:103870001A488642C9D1886940F4804088618869C5
:1038800000F480400490886940F0040088618869F1
:10389000694600F0040004907015CDE90002104E56
:1038A00003933046FEF706FCCDE9005469463046E6
:1038B0000294FEF7FFFB002205212520FEF744FFBE
:1038C0002520FEF733FFA0E7004C00400010024027
:1038D0000010014000500040001401400038014039
:1038E0000008014090F84230202B01D002207047A0
:1038F00021B11AB10023036302F0F8BC0120704724
:1039000070B5044600680E490E4D884207D1A8786C
:1039100000F0CEFE0122A91C0B48FFF7E3FF0B4984
:10392000206888420AD1E87800F076FBBDE8704054
:1039300004490122C91C0648FFF7D4BF70BD00002E
:103940000038014004020020F40400200050004030
:10395000AC04002090F84130202B01D002207047A9
:1039600079B172B101628284C28400214164212153
:1039700080F841100068C16841F08001C1600020FA
:1039800070470120704700002DE9F04104460D49C1
:10399000006800258E140C4F884205D13146384608
:1039A00001F044FF0948057009492068884206D1A2
:1039B0003146384601F03AFF0448401C0570BDE826
:1039C000F081000000380140000C0140040200209A
:1039D00000500040FEE701684A69D24352050FD407
:1039E0006FF480624A61002140F8301F2022427348
:1039F0008173026942F00402026101730120704781
:103A000000207047F8B50446C06A1E460D461746AA
:103A1000082807D0012805D010F5803F02D0206B80
:103A2000122804D12068016841F4807101601346B6
:103A300000224FF001112046009600F05DF840B1E1
:103A400020680068C00502D54FF400702064032090
:103A5000F8BD2069B0F5804F0ED00620216800EA3D
:103A6000D51040F0F000086133463A460B49204635
:103A700000F08AF878B902E005F0FE0000E0E8B254
:103A800021680861054933463A46891F204600F0FF
:103A90007BF80028DCD00120F8BD00000800010000
:103AA00070B516460D4604461EE02046FFF793FF0C
:103AB00008B1012070BD681C16D0FEF701FC801B08
:103AC000A84200D885B920684069C04340070BD59B
:103AD000002044F8300F20216173A073216941F068
:103AE000200121612073E4E720684069C04340075A
:103AF000DBD4002070BD00002DE9F0479846174642
:103B00000D460446C1F30746DDF820902AE000BFC9
:103B1000B8F1FF3F26D0FEF7D3FBA0EB09014145EA
:103B200002D8B8F1000F1DD12068012E16D080698F
:103B300025EA00000004000C12D00020B84211D188
:103B4000002044F8300F20216173A073216941F0F7
:103B50002001216120730120BDE8F0874069E7E77B
:103B60000120EBE72068012E0AD0806925EA0000D9
:103B70000004000C06D00020B842C9D00020EBE7BA
:103B80004069F3E70120F7E72DE9F047984616462C
:103B90000D4604464FF000094FF0200AC1F30747D5
:103BA00023E020684069C043400515D420680168BF
:103BB00041F40071016021686FF480604861C4F8CD
:103BC000309084F83DA084F83E90216C41F00401CF
:103BD000216484F83C9021E0701C06D0FEF770FB55
:103BE000A0EB0800B04203D816B1012F1FD021E08E
:103BF0002068012F15D0806925EA00000004000C20
:103C000018D000BF44F8309F84F80DA084F80E90BF
:103C1000216941F02001216184F80C900120BDE868
:103C2000F087406925EA00000004000CEAD1206812
:103C3000406901E02068806925EA00000004000C6A
:103C4000AFD1ECE770B516460D4604461EE020469F
:103C5000FFF7C1FE08B1012070BD681C16D0FEF749
:103C60002FFB801BA84200D885B920684069C0435B
:103C700000060BD5002044F8300F20216173A0739B
:103C8000216941F0200121612073E4E72068406947
:103C9000C0430006DBD4002070BD00002DE9F047D2
:103CA00090B000240C9401250E94FEF7EFF92948FA
:103CB00001210460284CC0E902410EA9FEF748F931
:103CC0004FF0FF3A50BB2549A0460A1F8868009074
:103CD000C86801900869029048690390C86A049016
:103CE000086B0590486B0690886B0790C86B08902E
:103CF000086C0990486C0A90886C10600027DFF807
:103D000060906E460B9001E084420DD256F8272059
:103D1000002321460220FEF779F918B1504610B071
:103D2000BDE8F0874846241D7F1C0C2FECDBFEF716
:103D300063F9414600204A460B6856F82040A342EA
:103D400000D00025401C091D914201D2002DF3D165
:103D50002846E4E7B08100200000010800010020AF
:103D60000008010800B50168C27809BA89B021F0DD
:103D7000FF0111430391042104910021059102796F
:103D80008DF81C1002F00F02069241798DF8001098
:103D900081798DF80110C1798DF80210017A8DF8C2
:103DA0000310417A8DF80410817A8DF80510C17ADC
:103DB0008DF80610007B8DF807000648FDF7ACFD76
:103DC0000028FAD008AB6A4602A90248FDF754FC65
:103DD00009B000BD0C02002010B58AB000220D21F0
:103DE000032005F0BBFD124C606008B9FDF783FBB2
:103DF000002000900190029003900490059006909E
:103E00000120079008900E20099069460948FDF7A7
:103E100091FC08B1FDF76FFB552020700548FDF7B8
:103E2000A9FF02210348FDF715FC0AB010BD0000F0
:103E3000E00000200C02002019481A4A0168101DF9
:103E400081601749091D0968C16015490831096871
:103E5000016113490C310968416111491031096848
:103E6000C1620F491431096801630D4918310968AD
:103E700041630B491C310968816309492031096894
:103E8000C16307492431096801640549283109687B
:103E9000416403492C310968116081647047000056
:103EA00000000108FC00002070B5184D687801285A
:103EB0002BD1174C00266E7094F84010042922D3A1
:103EC0002046FDF7BBF9F0B96178032905D0012040
:103ED000062905D0102916D10CE000F04DF812E0AB
:103EE00094F8401079B121782A7891420BD184F866
:103EF000D00008E094F8401029B121782A78914246
:103F000001D184F8D10084F8406070BDE401002044
:103F1000DA8100202DE9F8430025154C154E88461E
:103F200081466F1E42464946207800F0A7F806F009
:103F300051F90246009700230121E06906F014FBC5
:103F4000FFF7B2FFA068012896F8CF0002D0002842
:103F5000F6D004E018B96D1C15F0FF05E2D0002082
:103F6000A06096F8CF00002800D00120BDE8F883BB
:103F7000E4010020DA8100202DE9F047244D95F876
:103F80004000002823D0EC1CAE780027DFF884A086
:103F900005F1D2084FF0010916E000BFB5F8CA00DC
:103FA0003844322827D014DC0A281CD00B280ED124
:103FB0002046FDF7B5F8A8F80200AAF84E0000BFA9
:103FC000A41C85F8CF907F1CB7EB560FE6DBBDE84D
:103FD000F087332815D03D28F9D12046FDF7A0F809
:103FE000A8F80800ECE72046FDF79AF8A8F80000CA
:103FF000AAF84C00E4E72046FDF792F8A8F8040080
:10400000DEE72046FDF78CF8A8F80600D8E70000A8
:10401000DA8100200001002070B504460F4800211D
:104020000F4A40680F4B05E052F83150854204D0EA
:10403000491CC9B21D68A942F6DB02EBC1000A495E
:10404000406801F035FF094991F84000402804D24A
:104050000C5411F8400F401C087070BDE4010020A2
:10406000A4B10008E4B1000871400008DA81002022
:104070000149012048707047E40100202DE9F0411A
:104080000E4E0D46002706F144010123785403200B
:10409000585402232C0A5C5445540420130A4354F8
:1040A000052014464254062006F8C40F00F03AF8E2
:1040B000F772B472F580BDE8F0810000DA8100206B
:1040C000F0B4174D002605F14404102730550120A7
:1040D000075502200F0A0755032001550420062129
:1040E00006550520025550000855072085F8C400E4
:1040F00000200CE095F8C4103D290ED81E5C0E552A
:1041000095F8C410491C401C85F8C41080B2B0EB6F
:10411000420FEFD3F0BC00F005B8F0BC70470000D0
:10412000DA81002070B50C4C0B48443014F8C41FE1
:104130000546FDF783F82278010A51552178491C7C
:10414000C9B2217048552078401CC1B22170284660
:10415000BDE8704001F08CBBDA8100202DE9F84FFA
:104160000025164C164E9046894682466F1E4346E1
:104170004A4651462078FFF7A3FF06F02BF8024687
:10418000009700230121E06906F0EEF9FFF78CFEAD
:10419000A068012896F8D10002D00028F6D004E0EB
:1041A00018B96D1C15F0FF05E1D00020A06096F84D
:1041B000D100002800D00120BDE8F88FE4010020E4
:1041C000DA8100202DE9FE4F424C00254FF0030B11
:1041D00084F83D5094F83C00082803D084F83DB0A2
:1041E000BDE8FE8FA01CFCF79BFF8046201DFCF75E
:1041F00097FF070007F107004FEAD0064FF0020AC9
:104200003FD008EB0700401C05283AD80020A946FB
:10421000E84603E008F80090401C80B2B042F9D3B1
:10422000002528E02C4800EBC50150F835008988AE
:10423000FEF73CF835B1012D08D0022D0AD0032D30
:104240000FD10BE02549A1F854000AE02349A1F859
:10425000560006E02149A1F8580002E01F49A1F8E4
:104260005A0008EBD50105F007030A78984002438D
:104270006D1C0A70ADB2BD42D4D394F83D0038B184
:1042800002E0504684F83DA0C0B200F04BFAA7E728
:10429000104822783E30012109F8002062780A5443
:1042A0000AF8006084F8BEB0002142460AE094F8A3
:1042B000BE50535C2B5494F8BE305B1C491C84F8F0
:1042C000BE3089B2B142F2D394F8BE1000F050FA79
:1042D00086E70000F080002084AF00080001002085
:1042E0002DE9F04F374CA1B04FF0000984F83D9014
:1042F00094F83C000326082803D000BF84F83D60F2
:104300002BE0A01CFCF70CFF8346201DFCF708FFE8
:1043100005464028F2D800274FF0020AE84617E089
:1043200008EB4701584600F059F910B1022803D0B4
:1043300008E084F83DA010E07F1C0BF10100BFB243
:104340001FFA80FB0BF101007F1C1FFA80FBBFB23C
:10435000AF42E5D394F83D0030B194F83D0000F051
:10436000E1F921B0BDE8F08F164822783E300121F6
:1043700009F8002062780A546A000AF8002084F8DC
:10438000BE600021424615E094F8BE6012F811307C
:10439000335494F8BE3002EB41065B1CDBB284F868
:1043A000BE3076781E5494F8BE305B1C491C84F8ED
:1043B000BE3089B2A942E7D394F8BE1000F0D8F914
:1043C000CFE70000F080002070B5254C00200326C8
:1043D00084F83D0094F83C00082802D084F83D6041
:1043E00033E0A01CFCF79CFE0546201DFCF798FE60
:1043F00018B1B0F57F4FF1D101201A491A4B4DB1D8
:10440000012D0DD0022D11D0032D14D0022084F8DF
:104410003D001AE0A1F85400C2B24FF400710EE062
:10442000A1F85600C2B24FF4807108E0A1F858001C
:10443000C2B2102103E0A1F85A00C2B20821184606
:10444000FDF739FF94F83D0028B194F83D00BDE830
:10445000704000F067B9BDE8704000F077B9000027
:10446000F080002000010020000C014010B5104C2D
:10447000002084F83D0094F83C00082801D0032077
:104480000BE0A01CFCF74CFE211D00F08DF918B1CB
:1044900094F83D0040B102E0022084F83D00BDE800
:1044A0001040C0B200F03EB9BDE8104000F04EB977
:1044B000F08000202DE9F0411F4C0020032584F8F6
:1044C0003D0094F83C000B280BD3A01CFCF728FE01
:1044D0000646201DFCF724FEA1790746B1EB470FE5
:1044E00002D084F83D501CE0002511E004EB4501AA
:1044F0003046C91D00F058F9022801D070B103E020
:104500006D1C761CEDB2B6B2761C6D1CB6B2EDB267
:10451000BD42EBD394F83D0048B102E0022084F89C
:104520003D0094F83D00BDE8F04100F0FBB8BDE867
:10453000F04100F00BB90000F08000202DE9F041BF
:10454000234D4FF0FF373946E86805F0E7FC0026B9
:10455000204C012829D16E7094F83C10042924D3F2
:104560002046FCF76BFE00BB2078297888421CD1DE
:10457000194D3946286805F0D1FC607805281ED011
:1045800004DC012815D0032804D115E0062819D031
:1045900010281AD0012084F83D0000F0C3F8002351
:1045A0001A461946286805F071FA84F83C60BDE89F
:1045B000F081FFF707FEF2E7FFF792FEEFE7FFF764
:1045C00003FFECE7FFF752FFE9E7FFF773FFE6E7CA
:1045D000E8000020F08000207401002020B5334A5C
:1045E000292852D2DFE800F01551175119511B51FB
:1045F0001D511F5121232527292B512D512F513179
:104600005133513551375139513B513D513F42455D
:10461000480013683BE0536839E0936837E0D3689B
:1046200035E0136933E0536931E0108B26E0508B9D
:1046300024E0908B22E0D08B20E0108C1EE0536AA7
:1046400025E0936A23E0D36A21E0136B1FE0536BEC
:104650001DE0936B1BE0D36B19E0136C17E0536CF8
:1046600015E0936C13E0B2F84C0007E0B2F84E008E
:1046700004E0B2F8500001E0B2F85200012C06D07C
:10468000020A0A704870012020BD002020BD0748A2
:104690001A0E083803600A700268120C4A70028809
:1046A000120A8A700078C870022020BD0001002024
:1046B00070B5114B04460021104A114D586805E0B1
:1046C00052F83160864204D0491CC9B22E68B1420A
:1046D000F6DB0020587002EBC1000A49406801F087
:1046E000D3FB094991F83C003C2804D20C5411F842
:1046F0003C0F401C087070BDE8000020A4B1000809
:10470000E4B100080D470008F080002010B5044C0B
:104710000021E06805F0C9FA0120607010BD0000BA
:10472000E8000020084908B50A788DF8002049788B
:1047300041F080018DF801108DF8020003216846D8
:1047400000F016F808BD0000F08000201CB5074AF4
:1047500000206946135C0B54401CC0B20628F9D3F4
:104760000621684600F004F81CBD0000F08000201F
:1047700030B50C460A46A1B0054601466846FBF72F
:104780004FFD21462846FCF759FD010A0DF804109B
:10479000641CE1B20DF80100491CC9B2684601F081
:1047A0004BF821B030BD00002DE9F04107460D4621
:1047B0000846FCF7B5FC5F4C0646292F6FD2DFE8B0
:1047C00007F015B71EB727B730B739B742B7B74BA1
:1047D0004D4F5153B75CB765B76FB778B781B78A9C
:1047E000B793B79CB7A5B7B7B7B0B300A81CFCF791
:1047F00097FC0146304601F08DF820608EE0A81C41
:10480000FCF78EFC0146304601F084F8606085E0DC
:10481000A81CFCF785FC0146304601F07BF8A0603F
:104820007CE0A81CFCF77CFC0146304601F072F8E5
:10483000E06073E0A81CFCF773FC0146304601F011
:1048400069F820616AE0A81CFCF76AFC0146304662
:1048500001F060F8606161E0668367E0A68365E06F
:10486000E68363E0268461E0A81CFCF759FC01465E
:10487000304601F04FF8606250E0A81CFCF750FC95
:104880000146304601F046F8A06247E0A81CFCF75C
:1048900047FC0146304601F03DF8E0623EE047E06B
:1048A000A81CFCF73DFC0146304601F033F82063BC
:1048B00034E0A81CFCF734FC0146304601F02AF82D
:1048C00060632BE0A81CFCF72BFC0146304601F08E
:1048D00021F8A06322E0A81CFCF722FC0146304628
:1048E00001F018F8E06319E0A81CFCF719FC014678
:1048F000304601F00FF8206410E0A81CFCF710FC13
:104900000146304601F006F8606407E0A81CFCF799
:1049100007FC0146304600F0FDFFA0640220BDE820
:10492000F081A4F8506001E0A4F852600120F6E79D
:104930000020F4E7000100200F4810B50D49016088
:104940000821416000214FF460228160C0E9031218
:104950004FF480124261017641768176C17601770B
:104960004177FDF7EDF8002803D0BDE81040FCF7D3
:10497000C2BD10BD006400400C02002010B5044907
:104980000448FCF7BAFD0249491E087010BD00003A
:10499000390000202400002038B500F0A7FD0120D8
:1049A0000090184B18A21E21002000F019FE00F004
:1049B00019FF03F075FBFFF70FFA164A002116489E
:1049C00003F080FD154C134A002120602432144866
:1049D00003F078FD0F4A606048320021114803F06F
:1049E00071FD0C4AA0606C3200210F4803F06AFD93
:1049F000084AE060903200210C4803F063FD20611A
:104A000038BD00007CAF000877616974696E67206B
:104A100073642000D0A50008815E0008100000200B
:104A2000554F0008B94E000809500008354E0008DF
:104A30002DE9F04786B00024464800940194029482
:104A40000394816941F020018161816901F02001B5
:104A50000491816941F010018161816901F01001C7
:104A60000491816941F004018161816901F00401CF
:104A70000491816941F0080181618069DFF8D89073
:104A800000F00800049000224FF491714846FDF7B1
:104A900012FCDFF8C880002208214046FDF70BFC1D
:104AA000DFF8BCA0002241F21C315046FDF703FCA8
:104AB000012220215046FDF7FEFB0125CDE90054DF
:104AC000694648460295FDF7F5FA22200326CDE90E
:104AD0000005CDE9024669464846FDF7EBFA082095
:104AE0000227CDE90005CDE9024769464046FDF7BA
:104AF000E1FA0420CDE90005CDE9024669465046B9
:104B0000FDF7D8FA41F21800CDE90005CDE90247DA
:104B100069465046FDF7CEFA8020CDE9000469468B
:104B200048460294FDF7C6FA2802CDE90005CDE912
:104B3000024769464846FDF7BDFA4FF44870CDE993
:104B40000005CDE9025669465046FDF7B3FA06B0B6
:104B5000BDE8F0870010024000100140000801404D
:104B6000000C01400D4810B50B4901600C49416033
:104B700000214FF480428160C0E9031241618161EC
:104B8000C1610162FDF7A2FB002803D0BDE810401F
:104B9000FCF7B1BC10BD00000054004034020020FE
:104BA000801A06000D4810B50B4901600C494160A0
:104BB00000214FF480428160C0E9031241618161AC
:104BC000C1610162FDF782FB002803D0BDE81040FF
:104BD000FCF791BC10BD0000005800408802002086
:104BE000801A0600104810B50E4901604FF482711A
:104BF000416000218160C1604FF400720161C0E931
:104C000005120822C0E90721416281620A21C162BE
:104C1000FEF758F8002803D0BDE81040FCF76BBC45
:104C200010BD000000300140DC020020104810B52B
:104C30000E4901604FF48271416000218160C160C2
:104C40004FF400720161C0E905120822C0E9072192
:104C5000416281620A21C162FEF734F8002803D064
:104C6000BDE81040FCF747BC10BD00000038004014
:104C70003403002010B586B0002416480094019437
:104C80000294039404944FF08041059401604721FD
:104C9000C0E901144FF6FF71C0E903148461FEF707
:104CA000FFF908B1FCF727FC4FF4805000906946EB
:104CB0000848FEF7B5FA08B1FCF71DFC049404A9F6
:104CC00004480594FEF7AEF9002801D0FCF713FC68
:104CD00006B010BD8C03002010B586B00024174824
:104CE0000094019402940394049413490594016080
:104CF0004721C0E901144FF6FF71C0E90314846134
:104D0000FEF7CEF908B1FCF7F6FB4FF480500090A7
:104D100069460A48FEF784FA08B1FCF7ECFB0494F4
:104D200004A906480594FEF77DF9002801D0FCF798
:104D3000E2FB06B010BD000000040040D4030020D8
:104D40001CB500240F4800940D49019401604721CF
:104D5000C0E9011442F20F71C16080218161FEF748
:104D60009FF908B1FCF7C7FB009469460548019418
:104D7000FEF758F9002801D0FCF7BDFB1CBD000070
:104D8000001400401C0400200C4810B50A490160C2
:104D90004FF4E1314160002181600C22C160C0E923
:104DA00004128161C161FEF7CFFC002803D0BDE889
:104DB0001040FCF7A0BB10BD004C00406404002074
:104DC0000C4810B50A4901604FF4E13141600021FF
:104DD00081600C22C160C0E904128161C161FEF7EB
:104DE000B3FC002803D0BDE81040FCF784BB10BD25
:104DF00000500040AC0400200C4810B50A49016086
:104E00004FF416514160002181600C22C160C0E95D
:104E100004128161C161FEF797FC002803D0BDE850
:104E20001040FCF768BB10BD00380140F4040020BE
:104E3000FEE7000008B503220021012004F08EFDEA
:104E4000184C03220021A061012004F087FD0023FB
:104E50001A461946606104F019FE134800230090B9
:104E60001A464FF47A7111A005F034FB1149E06144
:104E7000606848600846FEF767FC01F037F84FF4B9
:104E8000FA74084A02210C320A20FFF767F920461B
:104E900004F064FB02210A20FFF73CF8204604F0EE
:104EA0005DFBEEE7E4010020B560000872787469EC
:104EB0006D657200AC0400201CB5012004F043FDB8
:104EC0001F4CA06198B30020FCF72EF91D481E4925
:104ED000006848600846FEF737FC032200210120E5
:104EE00004F03CFD1949086000F0DEFCFEF7A4FF69
:104EF000FCF7E8F8D4E91101CDE90001D4E90D236C
:104F000004F15C01A1F13400FCF7D3F9D4E91301F9
:104F1000CDE90001D4E90F2304F16801A1F13A00C1
:104F2000FCF7C7F900F0D8FFFFF708FBFCE7FFE745
:104F3000502080F31188BFF34F8FBFF36F8FFEE7D0
:104F40005C010020EC000020F4040020F4000020AC
:104F5000FEE700008AB0204C2049002320691A4651
:104F600048434FF47A71B0FBF1F11D4800901DA049
:104F700005F0B0FA1E4E0025E06117494431A1F159
:104F80001000FCF7BFF914494C31A1F11000FCF7F7
:104F900035FA01F06BFAA06001F07EFAE060A168DA
:104FA000206AFBF73FFCE168606AFBF731FCFCF725
:104FB000FDF810A21E2101A8336801F0BBFB114BC4
:104FC00001AA01210020009500F00AFB00F00AFC74
:104FD000642004F0C3FAD0E75C01002040420F00D7
:104FE00091110008626C6F7774696D657200000042
:104FF0000800002054696D653A2020202025647344
:105000000000000084A9000886B01D4801F058F88F
:105010001C4E1D4C40F2FF170025194964220D312A
:10502000306804F091FE012813D0207E2083174BB6
:1050300017A20A210020009500F0D2FA238B18A2B3
:10504000142101A801F076FB208BB8420CD1009509
:105050000CE00B480D3000F02BF8144802F00AF871
:105060000748FEF77FFEE9E701200090074B01AA01
:105070003221002000F0B4FA322004F06FFACCE7BD
:10508000C0810020E4000020000100207CAF000867
:105090004E6F742052656365697665640000000098
:1050A00073746174653A202535642000F001002096
:1050B0002DE9F04FDFF85CA20746B0F805509DB02F
:1050C0000AF12800AAF8025046884FF48074B7F815
:1050D0000500FBF770FBAE42564602D30AF13405D9
:1050E00001E08C4D44352968FBF7D3F96968FBF77B
:1050F00078F930628748B7F807502E30AAF8045084
:105100004688B7F80700FBF756FBAE42564602D377
:10511000804D3C3501E07F4D4C352968FBF7B9F9EE
:105120006968FBF75EF97062787A00F00309C0F3F2
:105130008108C0F301118509B87A0129C0F341162D
:1051400000F01F001C90F87A00F01F001B90387BC5
:1051500000F01F0B78D000297DD010297DD06EA1E2
:1051600002A8FBF79BF800BFDAF82000FBF73CFB36
:10517000CDE900016CA2142102A801F0DBFA0020A5
:105180006E4B02AA0A21009000F02AFA012D66D087
:10519000002D6BD0102D6BD069A102A8FBF77EF813
:1051A0005546DAF82400FBF71FFBCDE9000168A2A1
:1051B000142102A801F0BEFA0020604B02AA1E21B1
:1051C000009000F00DFAB8F1010F53D0B8F1000FC4
:1051D00057D0B8F1100F56D063A107A8FBF75EF8BF
:1051E000B9F1010F51D0B9F1000F55D0B9F1100F3D
:1051F00054D061A107A8FBF751F8AB8863A2142132
:105200000FA801F097FA6B8864A214210FA801F08F
:1052100091FA14AA0D21384602F096FF44F00804D2
:10522000012E3DD0002E3DD0102E3DD05FA107A80D
:10523000FBF734F840F2F71004401C981F2838D0D0
:1052400039E001E007E008E05EA102A8FBF726F8DC
:105250004FF4C07488E75FA182E762A180E765A18F
:1052600002A8FBF71BF844F0400499E765A194E716
:1052700068A192E76BA107A8FBF710F844F020049F
:10528000AEE76CA1A9E76FA1A7E772A107A8FBF79A
:1052900005F844F01004B0E774A1ABE779A1A9E7E1
:1052A0007DA102E082A100E086A107A8FAF7F6FF3F
:1052B000C3E744F0040488A20A210CA81B9B01F058
:1052C00039FA1B9801261F281ED0854B0CAA0121F4
:1052D0002820009600F084F95B4682A20A210CA8DF
:1052E00001F028FABBF11F0F11D07D4B0CAA012150
:1052F0002820009600F074F9D5E90801224601F053
:10530000B9F91DB0BDE8F08F44F00204E4E744F0C1
:105310000104F1E75C0100204E4F783A2064656695
:1053200061756C74202000004E4F783A2025352E90
:1053300032662070706D2020202000007CAF0008B5
:105340004F323A2064656661756C7420200000005D
:105350004F32203A2025352E32662025202020206D
:10536000202020202025200054656D703A2064659F
:105370006661756C74000000766F6C746167653AE5
:105380002064656661756C74202000004F325F7286
:1053900061773A2030782578200000004E4F585F22
:1053A0007261773A20307825782000006865617452
:1053B00065723A2073746F702020202020202020F6
:1053C000000000004E4F783A20737461626C6520D3
:1053D000000000004E4F783A20696E76616C696477
:1053E000202000004E4F783A206E6F2075736520A4
:1053F000200000004F32203A20737461626C6520F7
:10540000000000004F32203A20696E76616C6964BA
:10541000202000004F32203A206E6F2075736520E7
:105420002000000054656D703A2052656164792057
:105430000000000054656D703A20556E726561641D
:105440007900000054656D703A206E6F20757365A9
:1054500000000000766F6C746167653A20496E52F7
:10546000616E67652020202020200000766F6C741C
:105470006167653A204E6F74496E52616E676520B0
:1054800000000000766F6C746167653A206E6F20D3
:1054900075736520202020006865617465723A206C
:1054A00048656174696E6733342020200000000075
:1054B0006865617465723A206175746F48656174DE
:1054C000696E67006865617465723A204865617449
:1054D000696E6731322020006E6F25326400000053
:1054E00084A900086F3225326400000010B5012045
:1054F00004F029FA2D494860AE2000F0ABF82020D6
:1055000000F0A8F8102000F0A5F8B02000F0A2F8F4
:10551000C82000F09FF8002000F09CF8102000F058
:1055200099F8402000F096F8812000F093F8DF20F1
:1055300000F090F8A12000F08DF8A62000F08AF885
:10554000A82000F087F83F2000F084F8A42000F0A5
:1055500081F8D32000F07EF8002000F07BF8D52001
:1055600000F078F8F02000F075F8D92000F072F81B
:10557000222000F06FF8DA2000F06CF8122000F022
:1055800069F8DB2000F066F8202000F063F88D2039
:1055900000F060F8142000F05DF800F009F800F069
:1055A00021F9BDE81040AF2000F054B8D800002029
:1055B0004FF480610148FAF74CBE0000E17C002006
:1055C0003CB51C78059D203ACDE900455D68E41D99
:1055D0005B78E408544303FB045200F09BF83CBDA5
:1055E0002DE9F8411E46154688460446079F09E006
:1055F0003346414620460097FFF7E2FF70786D1C66
:105600002044C4B22A78002AF2D1BDE8F881000013
:10561000F8B50E4C0E4607464FF0FF352946606838
:1056200004F07CFC01280FD133463A467821084823
:105630000095FCF70FFF606801B00023BDE8F04063
:105640001A46194604F022BAF8BD0000D80000201E
:10565000340200200249487002210148FFF7D8BFF8
:10566000DA0000202DE9FC4180460720CDE9000347
:1056700001F00704CD08164602FA04F01F46C2B234
:1056800023464146284600F089F8002C0CD0601EC5
:10569000C0B2CDE90007C4F1080026FA00F2681C88
:1056A0000023414600F07AF8BDE8FC812DE9FC4377
:1056B00001F007061446CD089846814601F007011F
:1056C00006EB080204FA01F0099F082A16D90721FF
:1056D000CDE90017C2B233464946284600F05EF8CD
:1056E00008EB06000938C0B2CDE90007C6F1080092
:1056F00024FA00F2681C0023494607E0521ED1B28A
:10570000CDE90017C2B233464946284600F046F8B4
:10571000BDE8FC832DE9FF4F82B01D460F989346EC
:10572000C70800F0070088460026019018E002989C
:1057300000240BEB060A00EB06090DE004FB05F064
:10574000109B10F80A2008EBC400C1B209F0FF005A
:10575000FFF788FF641CE4B2BC42EFD3761CF6B2BC
:10576000AE42E4D30198002815D005FB07F60024CB
:1057700008EBC7070DE010980090311902981BF84C
:1057800001202044F9B2C0B2019BFFF78FFF641CD7
:10579000E4B2AC42EFD306B0BDE8F08FF0B5082814
:1057A000DDE9056419D2802917D20CB1D243D2B2F7
:1057B000FF25761C05FA06F6C3F10803084F46EAF2
:1057C0000204DD4007EBC017044B785CB2432C4366
:1057D000AA4320401A7010437854F0BDD80000202E
:1057E000E17C002070B5104D40200024287005F1A8
:1057F000810600BF04F1B000C0B2FFF72BFF00200C
:10580000FFF728FF1020FFF725FF06EBC4118022C9
:10581000681CFAF705FD81210348FFF7F9FE641CB7
:10582000E4B2082CE6D370BD607C00200022FCF7B7
:1058300042BD0122FCF73FBD70B5054609480C4644
:10584000017800290CD10121017009030648FFF7F6
:10585000F0FF22462946BDE870400448FEF77AB8BA
:1058600070BD000004020020000C0140F404002080
:1058700070B5054609480C46017800290CD1012174
:10588000017009030648FFF7D4FF22462946BDE808
:1058900070400448FEF75EB870BD000005020020AD
:1058A000000C0140AC040020184910B518488A6863
:1058B0004262CA68826201F15C025368C36301F10B
:1058C00068035C680464926842649A68826401F1C7
:1058D0003402136883605268C26001F13C021368AD
:1058E00003615268426101F144021368C362526865
:1058F000026301F14C0213684363526882638A8A2F
:10590000A0F85020098AA0F8521010BD5C010020B8
:105910000001002041EA0040014908607047000092
:10592000F800002070B5054601220021092000F092
:10593000DBF910F0FF0404D11021284600F082F8B2
:105940000446012211020448FCF7B5FC0CB1012009
:1059500070BD002070BD0000001001401FB56846FA
:10596000FFF7E0FF10B1002004B010BD9DF800105B
:105970000120B0EB911F09D19DF808209DF8091076
:1059800000EB0220084400048009EDE79DF80500C3
:105990009DF80A1000F00F0000EBD1109DF80910DF
:1059A0009DF8072001F0030100EB41019DF808007C
:1059B000800900EB82009DF8062002F0030200EB54
:1059C0008220401CC91F8840CEE700002DE9F0412D
:1059D00006461A4815460078062800D049024FF4BA
:1059E0000077012D4FF001021CD0122000F07CF94D
:1059F0003946304600F026F86D1E044606F500765E
:105A000015F0FF0501D0002CF2D0012200210C205E
:105A100000F06AF9012211020948FCF74CFC20460B
:105A2000BDE8F081112000F05FF910F0FF04F1D122
:105A30003946304600F006F80446EBE7D001002076
:105A40000010014070B50C46054600224FF48071ED
:105A50000E48FCF730FCFF2003F06EFB0646642086
:105A600001F0D8FCFE2EF6D104E000BF03F064FB89
:105A700005F8010B641EA4B24FF0FF00F6D203F04C
:105A80005BFBFF2003F058FB002070BD00100140BD
:105A900070B50C460546FF2003F04EFBFF28FAD1F7
:105AA000204603F049FBFD2C18D000244FF400766B
:105AB000285D03F041FB641CA4B2B442F8D3FF207C
:105AC00003F03AFBFF2003F037FBFF2003F034FB29
:105AD00000F01F00052801D0022070BD002070BD1D
